:020000040800F2
:10000000B1AA010000000000000000000000000094
:1000100000000000000000000000000000000000E0
:1000200000000000000000000000000000000000D0
:1000300000000000000000000000000000000000C0
:1000400000000000000000000000000000000000B0
:1000500000000000000000000000000000000000A0
:100060000000000000000000000000000000000090
:100070000000000000000000000000000000000080
:100080000000000000000000000000000000000070
:100090000000000000000000000000000000000060
:1000A0000000000000000000000000000000000050
:1000B0000000000000000000000000000000000040
:1000C0000000000000000000000000000000000030
:1000D0000000000000000000000000000000000020
:1000E0000000000000000000000000000000000010
:1000F00000000000A623000800000000000000002F
:1001000000000000000000000000000000000000EF
:1001100000000000000000000000000000000000DF
:1001200000000000000000000000000000000000CF
:1001300000000000000000000000000000000000BF
:1001400000000000000000000000000000000000AF
:1001500000000000000000009623000873700430C7
:10016000170500001305C5FF8545F605637BB5003F
:1001700089816378B500170500001305C5002E9529
:1001800002859302002073A0027D970200009382F3
:1001900062E773907230974200009382E29E739000
:1001A000C27E73E0C07E974200009382A295739056
:1001B0005230971100189381E1E417710018130170
:1001C00061E4174500001305E5E4970500189385E1
:1001D00065E3170600181306666463FAC5008322F8
:1001E000050023A0550011059105E3EAC5FE17059A
:1001F00000181305A562971500189385A5B66377B7
:10020000B500232005001105E36DB5FE73F0023241
:1002100017450000130505B897400000E78020B39C
:1002200097400000E78080BA97400000E780408652
:100230000145814597400000E780C0A317430000B7
:100240006700E3B101A073E00232828073F00232F2
:0402500082800000A8
:100280007406000812060008120600088606000818
:1002900098060008AA060008BC0600082B0000000B
:1002A00030313233343536373839414243444546AC
:1002B00000000000537570706F7274656400000078
:1002C0005061636B657453697A653D3130393B68C1
:1002D00077627265616B2B004F666673657473009D
:1002E000546578743D303B446174613D303B4273EA
:1002F000733D303B0000000053796D626F6C00006D
:100300004F4B000043000000545374617475730038
:1003100066546872656164496E666F0031656C0091
:10032000417474616368656400000000300000007F
:100330004D7573745265706C79456D7074790000F9
:10034000436F6E743F0000005330350016034700C2
:100350006900670061004400650076006900630081
:1003600065000000380347004400330032002000DD
:100370005500530042002000430044004300200089
:10038000410043004D00200069006E00200046003F
:10039000530020004D006F00640065000000000065
:1003A0002E03470044003300320058005800580024
:1003B0002D0033002E0030002E0030002D003700BD
:1003C0007A0038007800390079006500720000007A
:1003D0001201000202000040E9288A010001010226
:1003E00003010000004000084C03000864030008FB
:1003F000A00300080000000001000000020000004F
:10040000030000003C2B00086C2D00086629000842
:10041000EC2C000866290008882C00089A2900089E
:10042000042E0008F62B0008942A0008322C00083D
:100430005E2C0008082E00080000000000000000EC
:1004400001020304060708090A0000000A50726F3F
:100450006772616D206861732065786974656420D6
:100460007769746820636F64653A00003078000033
:10047000411102C641018280B707002023A0070076
:100480008280011122CC26CA4AC84EC652C406CE6A
:10049000AA842324050C2326050C2328050C0144DB
:1004A000371A00D205499309700593172400D29793
:1004B00083C7170063982703935754408A07A6976A
:1004C00083A6870C33178900D98E23A4D70C83A762
:1004D000470D93C7F7FFF98F91C72285973000002A
:1004E000E780E04B0504E31234FDF2406244D2445D
:1004F0004249B249224A05618280011122CC26CAB2
:100500004AC84EC606CE2A8901448549930470051F
:10051000935754408A07CA9703A7870CB39689005C
:10052000758F01CF83A7470D93C7F7FFF58F91C74D
:10053000228597300000E78060450504E31A94FCAB
:10054000F2406244D2444249B2490561828093D765
:1005500055008A073E958547B397B7008325450D1B
:10056000DD8D232AB50C8280AA853705002013056E
:100570000500170300006700C3FD757122C526C37F
:100580002A84AE841306000881450A8506C7974071
:100590000000E780A08B814713070008338697008F
:1005A0001042B306F100910790C2E399E7FE8A85F5
:1005B00022851306000897400000E780C087228547
:1005C000BA402A449A44496182801377F5058D47E1
:1005D000630AF700996785077D8DF1773E9513359E
:1005E00015008280054582801C410D4793F6370037
:1005F0006391E61613F7370613063006631DC7101E
:1006000013D727001D8B05466309C70E09C7630072
:10061000D70C1105828085669386068013D7470123
:1006200013964700758E9376077E558E93D6770086
:10063000F98A558E63D40700FD76558E93D6F70060
:10064000B1839D8BFD171948FD8A7D8B636AF80085
:10065000370800088A0713080828C2979C43828736
:100660008A060A07AE962E9794421C43E393F6FA45
:10067000329582808A060A07AE962E9794421C43D2
:10068000E398F6FE79B78A060A07AE962E9794424B
:100690001C43E3D0F6F8E9BF8A060A07AE962E9708
:1006A00094421C43E3C7F6F6E1B78A060A07AE9602
:1006B0002E9794421C43E3FEF6F45DBF8A060A07B8
:1006C000AE962E9794421C43E3E5F6F455B7856643
:1006D0009386068013D79700758FB7F60F00FD8EAF
:1006E000558F93D6470193F6E67F558F63D5070064
:1006F000B707F0FF5D8F3A95828013D5470163D429
:1007000007007D77598D13D7D7001377C7072E972A
:100710001C433E958280370720001307370733F6C6
:10072000E700E318E6EEE1830547638EE70089CB37
:100730000947638DE700E39ED7EC73251034828070
:100740007325100482807325101482807325102471
:10075000828099E20905828005476396E60E13D7E9
:10076000D7001D8B15466306C7006367E604E313D5
:10077000D7FE13D7270093D67700C18A398B558FC0
:100780009396270093F60640558F9396170093F69D
:100790000608558F9396370093F60602558F8566A7
:1007A000138606B48583F18FD98F93860680FD8EDC
:1007B000ADD27D77D98FB1BF99466305D7049D46E9
:1007C000E31AD7F813D777009396170013768701AB
:1007D00093F6060CD18E13D62700198AD18E139664
:1007E0003700137606029183D18E93F70710DD8EC2
:1007F00099C393E606F01D8B21070A072E971C4329
:10080000B1DB81A013D77700939617001376870189
:1008100093F6060CD18E13D62700198AD18E139623
:100820003700137606029183D18E93F70710DD8E81
:1008300099C393E606F01D8B21070A072E971C43E8
:1008400091FB3695828039671307F707A1667D8F84
:100850008906E311D7F005679D83130707F87D8F9D
:10086000E30A07EEFD8B8A073387F5000843828091
:100870001387450981479146104319EE92073707C0
:100880000400AE971307C70723A4E708054723A66C
:10089000A70823AAE708828085074107E39ED7FCC3
:1008A0008280370704009387850811079385850C9C
:1008B000D4436395A60098C323A60700C107E39914
:1008C000B7FE82807390057AB70704009387C70745
:1008D0007390177A7310257A8280B7370008411118
:1008E0009387072006C693E7370073905730B78782
:1008F000002083A70700739007341305206097300A
:100900000000E78040C41305006097300000E780D6
:1009100080C3896637150140938606800D46E14500
:100920001305058097300000E780A0B797100000FE
:10093000E780809D3705000885451305054797002A
:100940000000E78060F8B240410117030000670033
:1009500063B27310057AB707040091077390177A92
:1009600082807310057AF327007A6313F5027327E8
:10097000107A930785009207AE9798C7F327207ADD
:1009800012052E952326F508F327307A2328F5083B
:10099000828013058508814711477390077A1441B7
:1009A0007390167A54417390267A85074105E39631
:1009B000E7FE8280814701476395B7001375F70F03
:1009C0008280B306F50083C6060085073697EDB72B
:1009D000130101DF232481202326112023229120CB
:1009E0002A84814513070040B307B40083C707007A
:1009F00081C78505E39AE5FE228597000000E78020
:100A0000A0FB8A868145AA8413060020368597308C
:100A10000000E780A04393074002AA862300F1006C
:100A20001307B41F9305110083470400BDE3930728
:100A300030022380F50013D74400B70700089387DE
:100A4000072ABD881377F70F3E97A697034707003D
:100A500083C70700A3810500A380E5002381F5007B
:100A60008D053685958D97100000E780808897303A
:100A70000000E7806083054597000000E78000796B
:100A80008320C120032481208324412013010121DC
:100A90008280E30EE4F885050504A38FF5FE69B7AF
:100AA0008147930600403387F5000347070001C7DD
:100AB0008507E39AD7FE01476314F7000545828056
:100AC0003306E500B386E5000346060083C606004C
:100AD0006314D6000507CDB701458280130101DDFF
:100AE000232E3121130600208145AA890A85232659
:100AF0001122232291222324812223202123232C0B
:100B00004121232A512123286121232671212324D5
:100B100081212322912197300000E7802033930523
:100B200000200A8597000000E780807D81442DC564
:100B3000371400202A8A01498144930B4002130490
:100B40008483130C3002894A0D4BB70C0008B3079D
:100B5000210183C707006395770305472302E4203B
:100B60002320042003270420930617002297232024
:100B7000D4202300F700639E87012302542111A88B
:100B80000347442063045705630E67058546E30B5E
:100B9000D7FC0509E31D2AFB8320C12203248122FF
:100BA000268503290122832441228329C121032A86
:100BB0008121832A4121032B0121832BC120032C76
:100BC0008120832C412013010123828003270420EC
:100BD000230264219306170022972320D4202300A8
:100BE000F70045BF032704202302042093041700C5
:100BF00022972300F70023209420814763E4970283
:100C0000B38799002380070085451385CC292320CD
:100C1000042097000000E780C06D97200000E78067
:100C2000A06885BF3307F400834607003387F900C7
:100C300085072300D700D9B723200600254895460D
:100C4000AA9503470500930707FD93F7F70F637114
:100C5000F8029307F7F993F7F70F63F8F602930793
:100C6000F7FB93F7F70F63E4F600631BB500828090
:100C70001C429207938707FDBA971CC20505D1B79E
:100C80001C429207938797FCC5BF1C42920793872B
:100C900097FADDB7130101DE232C8120232E1120CA
:100CA00083C71500130770062A846386E7182E850C
:100CB000636DF70213078004638AE736636DF700FC
:100CC0001307F0036382E7348320C12103248121C9
:100CD0001301012282801307A005638CE7321307FA
:100CE0003006E393E7FE914731AE13073007638A7E
:100CF000E730636CF7101307D006638CE724130703
:100D00001007E393E7FC13842500B70500089385DB
:100D1000452B228597000000E780C0D809C9370518
:100D200000081305052C97000000E780A0CAB7054E
:100D300000089385852D228597000000E78080D6E6
:100D400009C9370500081305052E97000000E78044
:100D500060C8B70500089385852F2285970000009D
:100D6000E78040D409C9370500081305053097000E
:100D70000000E78020C6B70500089385453022852E
:100D800097000000E78000D209C937050008130565
:100D9000452F97000000E780E0C3B7050008938562
:100DA0008530228597000000E780C0CF09C937054C
:100DB00000081305452F97000000E780A0C1B70584
:100DC000000893850531228597000000E78080CDDB
:100DD00009C9370500081305C53197000000E780F1
:100DE00060BFB70500089385053222859700000093
:100DF000E78040CBE30A05EC370500081305C53250
:100E000097000000E78000BDC1B513076007638647
:100E1000E71A1307A007E399E7EA3000A145110597
:100E200097000000E78080E12245A285970000003E
:100E3000E78060A7E5AA1408B707000893054500F6
:100E4000130845089387072A368598419105A1061E
:100E5000135647403D8A3E9603460600238CC6FE45
:100E60001376F7003E9603460600A38CC6FE135683
:100E7000C7403D8A3E9603460600238DC6FE1356A4
:100E800087403D8A3E9603460600A38DC6FE135654
:100E900047413D8A3E9603460600238EC6FE135602
:100EA00007413D8A3E9603460600A38EC6FE1356B2
:100EB000C70161873D8B3E963E9703460600034778
:100EC0000700238FC6FEA38FE6FEE310B8F80327C2
:100ED0004408230C011093564700BD8ABE9683C672
:100EE00006002308D1109376F700BE9683C606004D
:100EF000A308D1109356C700BD8ABE9683C60600CC
:100F00002309D11093568700BD8ABE9683C606007A
:100F1000A309D11093564701BD8ABE9683C6060029
:100F2000230AD11093560701BD8ABE9683C60600D8
:100F3000A30AD1109356C70161833D8BBE96BA9721
:100F400083C6060083C70700230BD110A30BF11043
:100F500045BD3000A145090597000000E78000CE9F
:100F60007000A145050597000000E78020CD3248BC
:100F7000A24818083706000881473A851306062A52
:100F8000639807018607180CBA97238007E08DBD88
:100F9000B385170183C60500850709079182B296BC
:100FA00083C60600230FD7FE83C60500BD8AB2960E
:100FB00083C60600A30FD7FEE1B713842500B7054B
:100FC000000893850533228597000000E78080ADF7
:100FD00009C9370500081305452F97000000E78071
:100FE000609FB705000893850534228597000000AF
:100FF000E78040ABE30A05CC370500081305452F11
:1010000001B58D471CC0C9B13705000813058534EB
:10101000C5BBA1453000110597000000E78000C264
:101020002245A28597000000E780C08437050008AC
:1010300013050530F1B3130101CD08092326113240
:1010400023248132232021333704002023229132AC
:10105000232E313197F0FFFFE78060521305040023
:1010600097F0FFFFE78020421309040013060008F1
:101070000C091305490097300000E780C0DB02C768
:1010800073D0007AF32710343EC7BA47A28493097D
:1010900004002322F9088327090085EB7350007AA6
:1010A000B707040091077390177A854723A0F900CA
:1010B000014411492285938504000504970000002E
:1010C000E780608AE31824FF11A80D476385E712C3
:1010D00011476385E70E0947E389E7FC014597005F
:1010E0000000E7804087054597000000E780A08664
:1010F000094597000000E78000860D459700000035
:10110000E7806085054597000000E7802010130602
:1011100000208145080A97300000E78020D337057A
:1011200000081305853497000000E780A08A972007
:101130000000E7806017054597000000E780000D7C
:101140003A44130600080C090A8597300000E7802E
:1011500080CE22858A8597F0FFFFE7802049BA4735
:101160002A84884397F0FFFFE780604619C1731017
:10117000143422C70544080A97000000E78040960F
:101180003DCD0C0A1385040097000000E780C0B035
:1011900083A70900F5176364F4063A45854597F07F
:1011A000FFFFE780607297200000E780E00F138563
:1011B000040097F0FFFFE78080340DA013050400C2
:1011C00097F0FFFFE780207D894713050400232067
:1011D000F90097F0FFFFE780803201458320C1329C
:1011E0000324813283244132032901328329C1310E
:1011F000130101338280854723A0F900C5B59720EC
:101200000000E780600A85BF011122CC4EC652C49F
:1012100006CE26CA4AC8AA8997200000E780E07354
:101220002A8A2E8497200000E7802073AA842E89C2
:101230006314AA00E308B4FE0564371A00201304FF
:1012400004FA97200000E780407183270A81330762
:1012500095403335E500B3D78702B3852541B38781
:1012600037036394A500E36EF7FCF2406244D24476
:101270004249B249224A05618280011122CC4EC600
:1012800052C406CE26CA4AC8AA8997200000E78021
:10129000C06C2A8A2E8497200000E780006CAA8404
:1012A0002E896314AA00E308B4FE37143D00371AF0
:1012B00000201304049097200000E780006A832731
:1012C0000A81330795403335E500B3D78702B385EC
:1012D0002541B38737036394A500E36EF7FCF24022
:1012E0006244D2444249B249224A056182802E8634
:1012F000AA850145171300006700E32517130000B6
:1013000067000310411106C697100000E780201EF9
:101310001305600597F0FFFFE78040251305D00314
:1013200097F0FFFFE780802497100000E78060219E
:1013300001C5B240410182801305400697000000BC
:10134000E780C0ECD5B7411122C437040020130454
:10135000040E9305C40306C626C2AA849710000093
:10136000E780403993055403268597100000E780F5
:10137000603893055402268597100000E780803777
:10138000B2402244924401454101828041119305BB
:10139000100806C622C42A8497100000E780203F68
:1013A0008D45228597100000E780603E22859305D9
:1013B000200897100000E780803DB240224401459C
:1013C00041018280411106C691E997000000E78043
:1013D000A0158947B2403E85410182808D468947EC
:1013E000E39AD5FEB717002005472386E7809710BC
:1013F0000000E780C04DB717002023ACA780B717C7
:10140000002003A7C781814771D702978147D9B7C9
:101410000547639DE5020327050F8357850EB377C4
:10142000F70291EF09CF41118146014606C6971098
:101430000000E780603DB240014541018280B7175E
:1014400000200547A386E780014582800945828008
:1014500083C7150013071002638EE7046368F70063
:1014600013070002638DE702014582801307200203
:10147000638FE70813073002E398E7FE411106C6C1
:1014800073251034814597F0FFFFE780E04397F024
:10149000FFFFE780A0FEB24001454101828037177F
:1014A00000202320F780B71700209387C7D4232A72
:1014B000F5265DBF37170020130747801443B71781
:1014C00000209387C7D413D686002380D700A3803B
:1014D000C70013D60601E182A381D70083464700E7
:1014E0002381C7002328F50C2382D70083465700A9
:1014F00003476700A382D7002383E70083C77500F3
:1015000003C76500A207D98F232EF50CB1BF83C78F
:10151000350003C72500A207D98F371700202320E5
:10152000F78299B7B7150020938505809C41130574
:10153000F00F6386A704B717002003C6D7D483C66D
:10154000C7D4371700202206558E83C6E7D4130769
:10155000478088C1C206558E83C6F7D49387C7D407
:10156000E206D18E14C383C647002302D70083C688
:10157000570083C76700A302D7002303F700014584
:101580008280411106C622C426C289472302050073
:10159000A300F5002300C50011CA0547630BE60848
:1015A0000545B240224492444101828031472301E3
:1015B000E5001947A301E500A302F500B7040440C4
:1015C000AE8705472303E500A303E5002A8413063D
:1015D000C00B81453E8597300000E7802087056776
:1015E00093060780A69654C19386044014C593863B
:1015F000044434DD930607E0A696232CD50A04C1E3
:101600008345340013070790AA8726979306C500E1
:101610000146636BB60203462400056793860450B7
:101620009387C703BA94856501476368C70201457C
:101630008DBF21472301E5001147A301E500A30267
:10164000F500B7040050ADBF1305072098C288CE3F
:1016500005061307070291066DBF94C3A4C30507CF
:10166000938606029107AE94C9B71C4201112EC69B
:10167000985F98478346D10022CC799B06CE26CA34
:1016800098C72AC4054732846395E60637071000D9
:1016900098DFD847B706E0FF9386F6FB758FD8C76B
:1016A000D847B706F0FFFD16758FD8C7984B13675C
:1016B000170098CB984B058B75FF0D4597100000D0
:1016C000E780A0CC0347C1008547631EF7001C409C
:1016D00098471367070298C79847059B98C798478C
:1016E0001367A70098C7F2406244D24401450561E0
:1016F0008280D84793D4050193F4F40F136707044D
:10170000D8C7984B1367170098CB984B058B75FF7C
:101710000D4597100000E78040C7B7072D0099C01E
:10172000B7073D00184051451CDF97100000E780C7
:1017300040C649BF71060A062A968D068982504620
:101740008A06AE966394B6000145828003C71500F1
:1017500083C70500910522075D8F83C7E5FFC20798
:101760005D8F83C7F5FFE207D98F1CC2E1BF0D066D
:101770000982785D0A062E966394C5002E858280C4
:101780001C43910593D68700238EF5FEA38ED5FECC
:1017900093D60701E183238FD5FEA38FF5FEE9BF22
:1017A000184141119A0506C693E505020CCB1C4B66
:1017B00093F70702EDFF0D4597100000E780E0BCAE
:1017C000B2400145410182801841411106C6C1471E
:1017D0001CCB1C4BC18BF5FF0D4597100000E7801B
:1017E000C0BAB2400145410182801C457D57D8C333
:1017F000370700C07D17D8CB371700801307078045
:1018000098CF0347450009E7984F1367070198CF22
:10181000984FB7360C00A906558F98CF98470145C9
:101820001367170098C782801C45B70600A04111B6
:10183000D847FD1622C406C626C2758FD8C7D8471A
:10184000B70600407976558FD8C70327050C1306D5
:10185000F67F2A842320070058451443F18E14C3D1
:10186000144314C31443F19A14C303460500854678
:10187000631AD602144393E6360014C31307000814
:10188000D8D3370740001307070898D737078000D9
:101890001307070C23A2E7101307001423A4E71073
:1018A00023A6E71093048400C14526859700000015
:1018B000E78040EF268597000000E78020F15C4438
:1018C0007D57814623A8070023AA070098CF23AE9F
:1018D00007000348340013074401B7050048130507
:1018E000F00F63ED0601228597000000E78020F0ED
:1018F000B240224492440145410182801C439043FE
:101900006355060290434D8E90C323A8070088C7F5
:101910001C4F9043635E060090434D8E90C323A8F6
:10192000070088C7850611076DBF23A00700F1BF18
:1019300023A00700EDB758455C4393E727005CC33D
:10194000828058455C43F59B5CC382805C45920570
:1019500098431377F78098C39843D98D8CC38280BE
:10196000984183870500411102C63D8B63D9070664
:1019700093172700AA97DC4B8546B396E60036C638
:101980009443504513950601634405049443370579
:1019900034FC13050580E98E94C329EF144603A88F
:1019A000070013F56600B746000893864600AA961E
:1019B00083C60600B3E6060194C383C615008843B8
:1019C0005A07CA06558F498FB7860010558F98C39E
:1019D00032475C4E0145D98F5CCE4101828093072E
:1019E00087008A07AA97130607018546DC47B39646
:1019F000C60071B7884383D64500C98E75BF9C4128
:101A000003870500BD8B6355070205473317F700B1
:101A10008A07AA97D04B1C42E176FD16F58F1CC2AF
:101A20005C451347F7FF0145D44F758FD8CF8280AF
:101A300093860701A1078A070547AA973317D7009E
:101A4000D047D1BF90410111B70600E03D8A9317FE
:101A50002600AA97D84B06CE1C433EC41C4B3EC65C
:101A6000B247F58F3EC6DC45A5E7B247B70608008A
:101A7000D58F3EC6B2471CCB83464500854763944D
:101A8000F6009C4D5CCB03C815008547631CF8002D
:101A90005C459C4793F70710B5CFA247B7060020D7
:101AA000D58F3EC4A247B7060084D58F3EC4A24757
:101AB000D4451CC385476303F80699C65845339639
:101AC000C700545B558E50DBF240014505618280B2
:101AD00083D645001DE663F3F600B687DCC5B24742
:101AE000B7060800D58F3EC6B247D445D58F83C60A
:101AF00015003EC68547E39FF6F6B247B70600607D
:101B000085BFFD17B697B3D7D7023248CE07B3E7E4
:101B10000701D1BFA247B706001059B78C45C206CE
:101B2000C182210597000000E78000C171BF984184
:101B3000D4453D8B930787008A07AA9783A8C700DF
:101B4000B70700E003A6080003A808013378F800EF
:101B500083D7450091C239E33368F800B70708001E
:101B6000B3E7070123A8F80003474500854763153D
:101B7000F7009C4D23AAF80003C71500854763189A
:101B8000F70083C735009DC7B70700205D8EB707F4
:101B900000845D8E23A0C800014582801387F6FF74
:101BA0003E973357F7029316370133E80601B30720
:101BB000F7027DB7B7070010D1BF9C41038705002E
:101BC000BD8B635407028A07AA97DC4B984363577F
:101BD00007009843B7060040558F98C39843B7064F
:101BE00020000145558F98C38280A1078A07AA97D4
:101BF000DC47EDB79C4103870500BD8B635A0702A4
:101C00008A07AA97DC4B9843B706E0FFFD16758F4D
:101C100098C303C71500854679171377F70F63E755
:101C2000E6009843B7060010558F98C3014582809F
:101C3000A1078A07AA97DC47F9B75C45884FDC4FB4
:101C40007D8D41811375F5038280A1058A05AA95D2
:101C5000DC4598475C45C84B798D82805C45884F50
:101C6000DC4F7D8D1375F50382805845144B5C5B0A
:101C7000139725003A955849B3D7B7009E070847F0
:101C800093F7F70FD58F7D8D82805C5537070860FD
:101C9000610798CB834645000547639AE600130524
:101CA0004542C8CB9843B7860080558F98C3828041
:101CB0008347750091CB5C459C47858B91C7032773
:101CC000050C1C43F19B1CC382801C45D84B058B23
:101CD000631C0712411126C2C44B9C4F06C622C486
:101CE0004AC0FD8C638C04109397C4002A8463D689
:101CF000070097000000E78080119397D40063D716
:101D00000700228597000000E780402085679387C1
:101D1000078033F7F40019C318445CCB63DC04007C
:101D20008347740C3707008093F7F70F2303F40CF5
:101D30001C44D8CB93F7240081C71C440947D8CB57
:101D400093F78400B1C7832704439C4F99C322852E
:101D5000829737190020130949828347090093F7B6
:101D6000F70F85C7834709000947850793F7F70FE2
:101D70002300F900834709006379F7002285971053
:101D80000000E780601D230009001C442147D8CBD8
:101D900093F7040191C7228597000000E780C022D5
:101DA0009397340163D70700228597000000E780EE
:101DB000002E9397240163D7070022859700000027
:101DC000E780003A9397B40063DC0700832704435D
:101DD000DC4F99C3228582971C4437071000D8CB6B
:101DE0009397A40063DC0700832704439C5399C3A3
:101DF000228582971C4437072000D8CBB24022446A
:101E000092440249410182808280397122DC26DAC3
:101E10004AD84ED652D456D25AD05ECE62CC06DEC6
:101E200066CA2A84370A080097000000E78020E18C
:101E30002A898144B71A0020214B8549994B614C6E
:101E40007D1A63100902F2506254D2544259B259B9
:101E5000225A925A025BF24B624CD24C05452161E8
:101E6000828093771900C9CF93FCF40FE685228511
:101E700097000000E780A0DD2AC4A247858BA1CF90
:101E800093972400A297D857232437018346440010
:101E9000639F3601184B3AC633878403B246B3F6C4
:101EA0004601BA9703D70727158F23AEE726E685A5
:101EB000228597100000E780601383474400639CED
:101EC000370191E88347C4426397770122859700E1
:101ED0000000E780C0DBA247A18B9DC395E0938CF7
:101EE0004A8283C70C0093F7F70F99CB228597108E
:101EF0000000E78060065C5423800C0023A4670187
:101F000013591900850435BF797122D426D24AD0DD
:101F10004ECE52CC56CA06D65AC82A849700000024
:101F2000E78000D42A898144130A00088549954A2C
:101F3000631D0900B250225492540259F249624A78
:101F4000D24A424B05454561828093771900BDC74F
:101F500013FBF40FDA85228597000000E78020D17B
:101F60002AC6B247858B9DCB93972400A297DC4B62
:101F7000DA85228523A4370197100000E7806015D9
:101F800083474400639C370191E88347C4426397C9
:101F90005701228597000000E78060CFB24793F792
:101FA000070889CFA685228597000000E780C02119
:101FB00093972400A297DC4B23A4470113591900DF
:101FC0008504BDB71C45011102C6984F22CC26CA14
:101FD0004AC83D9B06CE98CF9C5389462A893EC667
:101FE0003244B2443247B24791803D88C583BD8BAD
:101FF00093F4F47F6382D70299466387D70403275B
:102000008900F24062441C4FD244424993E70701E1
:102010001CCF054505618280FDD0F1473304F402F1
:1020200026862A9483254427210597F0FFFFE78021
:10203000407483274427A697232AF4268327C4279E
:10204000BE94232E942665BFF1473304F4023D83EA
:102050000D8B2A948347C426BD8BD98FCDF3A1471E
:10206000E39FF4F8930545422146210597F0FFFFD1
:10207000E78020708327C4270547A107232EF42675
:10208000B71700202382E7829DBF5845411122C423
:102090005C4306C626C2F99B4AC02A845CC38145BC
:1020A000210597F0FFFFE780E06F034634009307B8
:1020B000440101479306F00F636BC7085C447D57EA
:1020C000854498CF41670507D8CF2547D8CB84CB27
:1020D00098432285130900041377F78098C3A3025D
:1020E000040C97000000E78080BA1C440567714625
:1020F000D8CB9307C4263E85814597200000E78012
:10210000E0D4AA8523182427228597000000E780C1
:1021100060859307840C714681453E8597200000B9
:10212000E780C0D2130700F82316240D2304E40C23
:10213000AA85228597000000E780C082B240230371
:10214000940C2244924402490545410182808C430B
:102150000507910794C5CC4B94C5B9BF5C45717612
:102160001306F63F9847D443058393F6F6EFD4C39E
:10217000D44393E60610D4C31C45D447F18ED4C78C
:1021800093763700374700081307870036970347D1
:1021900007008D46631ED700A300E500D847896677
:1021A00093860640558FD8C70967D8CB05458280EE
:1021B0000947A300E500D847856693860640558FFA
:1021C000D8C7DDB7F147B387F50279714ECE06D691
:1021D00022D426D24AD052CC56CA5AC8AA9703A7AC
:1021E000470D83A6870D83D7C70C5EC662C4158FC3
:1021F000AA896373F700BA87714433848502854ADC
:102200008D07B39ABA00139B2500C16B13DA270020
:1022100093CAFAFF4E9BFD1B4E9413F9F50F138CD6
:10222000890083274B01984F337777016378EA0061
:102230000327840D8327440D636FF700B2502254A7
:1022400092540259F249624AD24A424BB24B224C52
:102250000545456182808354C40C998F63F39700D0
:10226000BE848325040D9396040193873400C182B4
:102270004A86628513DA270097F0FFFFE780C04B9C
:102280008327840D0327040D2697BE948327440DCE
:102290002328E40C232C940CE395F4F883A7C900BD
:1022A000D85B33775701D8DBADBF4111014506C676
:1022B00097100000E780E02B3777DC02B71700208B
:1022C000130707C0938787826317E502370740002B
:1022D00098C38D4637170020232AD7D488439710F8
:1022E0000000E780C027B2401305C050410117131A
:1022F00000006700432537A74A0413070720631827
:10230000E50023A00700371700209546F1B737E70F
:10231000B80513070780E313E5FC3707C00098C32F
:102320009D46371700204DBF4111014685451305D5
:10233000600506C697100000E780C0071305C0714E
:1023400097100000E7802020370504009710000058
:10235000E78080140146814537050400971000008E
:10236000E78080083705040097100000E780C0115F
:10237000B24001468D451305D003410117130000FB
:1023800067004303828017F3FFFF670043EF17F3F3
:10239000FFFF6700A3E73705002013058514170327
:1023A00000006700C392411122C43704002006C612
:1023B0009307841483C777008DCB97000000E780D4
:1023C0008024B717002003A5878297100000E780BC
:1023D00000191305C05097100000E780C0161305C0
:1023E000841497000000E780E08C2244B240370557
:1023F00004004101171300006700030A011122CCF9
:10240000370400209307C45706CE26CA4AC84EC6D2
:1024100052C456C25AC023A20720B7070020138710
:1024200087140347670C8D461304C457639FE60265
:1024300037190020BE84AA89371A0020054BB71A25
:102440000020130909A48347CA80638D670383278B
:10245000442013871700A297238007002322E4203B
:1024600081470327442063E8E70603254420F24020
:102470006244D2444249B249224A924A024B7D15F3
:102480000561828003A68A811DC28326442081477C
:10249000B305F90083C505003387F60022972300B2
:1024A000B7008507E396C7FEB6972322F42093066C
:1024B00000044A868D451385841423060A8023ACC4
:1024C0000A8097000000E780203005459700000053
:1024D000E78020EC8DBF3307F40083460700338785
:1024E000F90085072300D700ADBF411106C697004C
:1024F0000000E780401197100000E780C0EA09451E
:1025000097100000E78080EA97000000E78020DA5B
:1025100097000000E78040E797000000E78000E1B7
:10252000B2403706002037050020130646128545C5
:10253000130585144101170300006700633DB707C9
:1025400000209387871403C5670C75151335150094
:10255000828001114AC84EC606CE22CC26CA52C479
:1025600056C2AE89328997100000E780003F93077A
:10257000002063F4270113090020E1649384046AB6
:10258000AA94371A002033B5A400D28A3304B500C8
:102590008347DA8099EB97100000E780003CE3E97D
:1025A00085FE6314B400E36595FE37160020A3860C
:1025B0000A800144930706A8631B240393160401B1
:1025C00037050020C182130606A8930510081305DD
:1025D000851497000000E78020232285F2406244A2
:1025E000D2444249B249224A924A056182803387E5
:1025F0008900834607003387870005042300D7003E
:1026000065BFB71702409843B706FFE0B1061367EE
:10261000170098C3D843758FD8C39843B706F7FE01
:10262000FD16758F98C39843B706FCFFFD16758F8E
:1026300098C3D843B70601DFFD16758FD8C323A60C
:1026400007029843B706F7EAFD16758F98C3370758
:10265000FF0098C794434167D98E94C39307F7FF4F
:102660003717024014431396E60063440600FD1733
:10267000F5FBB717024098439316E70063C30600C3
:1026800001A0D843B706C4DFFD16D8C3D843D8C3CA
:10269000D84313670740D8C3D843758FD8C3D843EE
:1026A000B7061D20558FD8C3D857BD76758FD8D79C
:1026B000D857B706000113671700D8D79843558F2E
:1026C00098C3B7170240984393166700E3DD06FEF0
:1026D000D843719BD8C3D84313672700D8C3371793
:1026E00002405C43A18BF5DF171300006700C30DA8
:1026F000411106C603C7550083C7450003C6250020
:1027000022075D8F93178601E18763D20706F147A1
:102710009376F607B386F6029387860CAA9603C8CB
:10272000860CAA97136808F82384060D83C6070051
:102730003D8A1377F70FC19A558E2380C7002392E5
:10274000E70003C73500BE850D8B931627003707BA
:1027500000081307473F36971843A380E70097F018
:10276000FFFFE7802020B240014541018280F14611
:10277000B306D6029387C626AA9603C8C626AA978A
:102780001378F8072386062755B7411193978501DB
:1027900006C6E18763D2070293F5F507F147B385D3
:1027A000F5029385850CAA9597F0FFFFE7806025D9
:1027B000B240014541018280F147B385F50293851E
:1027C000C526D5B793F7F507F145B387B702411191
:1027D00006C605479385C726AA9723AAC72623AC12
:1027E000D72623AE072683464500AA956394E600C4
:1027F00023A2C72897F0FFFFE780A033B24001452E
:102800004101828093F7F507F145B387B702411183
:1028100006C605479385870CAA9723A8C70C23AA49
:10282000D70C23AC070C83464500AA956394E600B9
:1028300023A0C70E97F0FFFFE7800021B2400145BB
:102840004101828041119397850106C6E18763D5D6
:10285000070293F5F507F147B385F5029385850CDB
:10286000AA9585472381F50097F0FFFFE780203583
:10287000B240014541018280F147B385F50293855D
:10288000C526F9BF41119397850106C6E18763D438
:10289000070293F5F507F147B385F5029385850C9B
:1028A000AA952381050097F0FFFFE780E034B2404E
:1028B000014541018280F147B385F5029385C52624
:1028C000C5B717F3FFFF6700A308F147B385F5020B
:1028D000AA9503D5C5278280411106C697F0FFFF50
:1028E000E7806006B2400D45410117030000670014
:1028F00043AA411106C697F0FFFFE7800004B240EB
:102900000D454101170300006700A3A8411106C649
:1029100022C426C2930485002328C5422E86A6859C
:102920002A8497F0FFFFE78000C64C4008402686C7
:1029300097F0FFFFE780A0D3228597000000E78093
:1029400080FB228597F0FFFFE78040EE228597000D
:102950000000E780A0F885472303F40CB24022442E
:102960009244410182800545828003254541834789
:1029700005002310F600828003258541834725004A
:102980002310F6008280832705428A05AE9788438C
:10299000834705002310F6008280411122C426C21D
:1029A00006C683C705002A84AE848D8B8DCF05476C
:1029B0006385E70C0327C40D054561C783C7740011
:1029C00083C66400A207D58FCDCF6371F70C835700
:1029D000C40C01456367F70A3375F70255E985476B
:1029E000A306F44279A883C7250083C535000947AB
:1029F000A205DD8D93D7850093F5F50F638CE70471
:102A0000636BF7020547E397E7FA1306C50D9700D6
:102A10000000E780C0F52328A40C83C7740003C717
:102A20006400A207D98F13070004E395E7F8A147D4
:102A3000232EF40C41B70D476387E7023D47E39B24
:102A4000E7F68327C54103C727002328F50C231E7B
:102A5000E50C8DB71306C50D97000000E78000F266
:102A60002328A40C81BF9547E3E6B7F41306C50DF0
:102A700097000000E78060F1E5B783270543DC4756
:102A80008297B2402244924441018280232EF40C6A
:102A90000145C5BF41114AC006C622C426C283C72C
:102AA0002500371900201309C9822300F900854643
:102AB00063EDF6000347650C89442A841377F70F0A
:102AC000630797000D466309C702854439A881440E
:102AD00089CF832705438545DC43829783470900D7
:102AE0002302F40C8D472303F40CB24022442685C4
:102AF000024992444101828091EF83270543814539
:102B00009C478297834709002303940C8144230246
:102B1000F40CE1BF8347450C8144E388D7FC83274D
:102B2000054385459C4782978345090083270443D5
:102B300022852302B40CDC43829745BF83C655002F
:102B400003C7450003C60500A206D98E0D8A854538
:102B5000AA8713F7F60F6303B60411C6894563020B
:102B6000B606054582800347650C89466388E60002
:102B70000347650C8D4605456394E60483C62741EB
:102B800003C7074189C6B336E00093E6260037172E
:102B90000020130707832300D70029A88346650C6C
:102BA0000D460545631ED600636CE500371700200F
:102BB0001307078323A8E70C094723AEE70C014559
:102BC00082800346650C8D450545E39BC5FEE20604
:102BD000E18663DB0600F1461377F7073307D70278
:102BE0003E978346A70C65B7F1463307D7023E9759
:102BF0008346E72669BF0347650C8946AA87137792
:102C0000F70F6307D7008D466301D7020545828021
:102C10000347450C054565FF1387470C23A8E70CC0
:102C2000054723AEE70C014582800347450C79DF59
:102C3000E5B78347650C0D476311F70203C74500ED
:102C4000854763EAE70003270543232EF50C8147F8
:102C500005072328E50C3E8582808547EDBF834725
:102C6000650C0D476310F70203C74500854763E90C
:102C7000E7008327054303C72500A380E7008147BA
:102C80003E8582808547EDBF03C7550083C645005A
:102C90002207558F01CB054582800545B24022446D
:102CA0004101828003C7750083C665002207558FE6
:102CB0007DF3411122C406C683C525000347650C78
:102CC0008D4693F5F507A302B50C2A84E387E6FC4D
:102CD00097000000E78020BF8347540C91C78947C5
:102CE0002303F40C01455DBF8547DDBF411106C6D6
:102CF00022C483C705002A878D8B8DCF8946054462
:102D00006391D7068347650C0D470544631BF704A1
:102D100083C7350003C725000144A207D98FB1E35B
:102D200083C5450093F7F5078DCF97000000E78036
:102D3000A0B105A88347650C89466388F6008347E0
:102D4000650C8D460544639EF60083C7350083C637
:102D500025000144A207D58F85466394D700230937
:102D6000F7402285B240224441018280411126C2AF
:102D700006C622C44AC003C70500AA840D8B29C712
:102D8000894605496319D7060347650C8D460549F1
:102D90006393E60603C7350083C625000149220771
:102DA000558F31EB03C745009376F707A9C62E84EC
:102DB000BA8597000000E78020AD83A70443A28571
:102DC0002685DC47829705A80347650C89466388FA
:102DD000E6000347650C8D460549639EE60003C780
:102DE000350083C6250005492207558F6315270145
:102DF000238904400149B24022444A859244024951
:102E000041018280014582800145828083C715008F
:102E100013972700B707000893874740BA9703A383
:102E2000070002838346650C0D4685476310D60272
:102E300083C64500854763EBD700832705434111CF
:102E400006C6DC478297B240410182803E8582807F
:102E50000145828041119305000806C622C42A84D8
:102E600097000000E780409E228581459700000082
:102E7000E780809D22852244B240410117F3FFFF85
:102E80006700E3E08356C50D0326050D411181451A
:102E900022C406C62A8497000000E780E096035704
:102EA000C40C8326C40D89476373D7008547230666
:102EB000F442B240224401454101828083560528F4
:102EC000032645274111814522C406C62A8497005E
:102ED0000000E780608F035704278326042891476A
:102EE0006373D7008D472306F442B2402244014564
:102EF00041018280411106C622C495472306F5424E
:102F00008146014681452A8497000000E780C08FF2
:102F1000228597F0FFFFE78080D7B2402244014529
:102F200041018280411106C622C499472306F54219
:102F30008146014681452A8497000000E780C088C9
:102F4000228597F0FFFFE78080D4B24022440145FC
:102F5000410182808327454203278542011122CC0B
:102F60003EC43AC606CE93F70706130700022A842A
:102F7000638AE70213070004638CE702B9EF2C00B1
:102F800097000000E780C0E829E98357E1009DE74A
:102F9000228597000000E78020F6F2406244014558
:102FA000056182802C0097000000E780E0E7E9BF20
:102FB0002C0097000000E780E0E9F9B78307810063
:102FC000228563D7070097000000E780E0EBF1B7A8
:102FD00097000000E780C0EEC9B72C00228597005B
:102FE0000000E78060E755BF797106D622D400184B
:102FF000232EA4FCAE87A30DF4FC8347B4FDC1EBE4
:103000008327C4FD9387C7262326F4FE8327C4FDA8
:1030100083C7C7420D476386E70011476386E7020F
:103020004DA08327C4FEDC4B0327C4FE0357470093
:103030003387E7408327C4FED8CB0325C4FD970020
:103040000000E780E0E7B5A88327C4FD83C7670CCD
:1030500013F7F70F8D476311F7028327C4FD83A78A
:103060000743DC4B91CB8327C4FD83A70743DC4B8D
:1030700081450325C4FD82978327C4FE23AA070048
:103080000325C4FD97000000E78000E71DA8832703
:10309000C4FD83A70743DC4B8DC78327C4FD83C7CB
:1030A000670C13F7F70F8D47631DF7008327C4FDE7
:1030B00083A70743D84B8347B4FDBE850325C4FDD2
:1030C000029781473E85B2502254456182807971D2
:1030D00006D622D40018232EA4FCAE87A30DF4FC40
:1030E0008347B4FDDDEB8327C4FD9387870C23263C
:1030F000F4FE8327C4FD83C7C74205476386E70004
:1031000009476386E702E1A08327C4FEDC4B03275F
:10311000C4FE035747003387E7408327C4FED8CB5C
:103120000325C4FD97000000E78000D64DA083274B
:10313000C4FD83C7D74299CF814601468145032507
:10314000C4FD97F0FFFFE780206C8327C4FDA386B2
:103150000742B5A88327C4FD83C7670C13F7F70F91
:103160008D476311F7028327C4FD83A707439C4B58
:1031700091CB8327C4FD83A707439C4B814503253F
:10318000C4FD82978327C4FE23AA07000325C4FD3C
:1031900097000000E78040D91DA88327C4FD83C79E
:1031A000670C13F7F70F8D476313F7028327C4FDEE
:1031B00083A707439C4B81CF8327C4FD83A7074385
:1031C000984B8347B4FDBE850325C4FD0297814714
:1031D0003E85B2502254456182800000000000000C
:1031E00000000000000000000000000000000000DF
:1031F00000000000000000000000000000000000CF
:1032000073110134197102C006C20EC612C816CA63
:103210001ACC1ECE22D026D22AD42ED632D836DAD6
:103220003ADC3EDEC2C0C6C2CAC4CEC6D2C8D6CA06
:10323000DACCDECEE2D0E6D2EAD4EED6F2D8F6DAB6
:10324000FADCFEDEF32F00347EC4732520349305B0
:10325000010097E0FFFFE78040DE0320010092407D
:10326000B2414242D2426243F24302549254225546
:10327000B2554256D2566257F257064896482649EA
:10328000B649464AD64A664BF64B065C965C265DC6
:10329000B65D465ED65E665FF65F09617311013406
:1032A00073002030197102C006C20EC612C816CAB9
:1032B0001ACC1ECE22D026D22AD42ED632D836DA36
:1032C0003ADC3EDEC2C0C6C2CAC4CEC6D2C8D6CA66
:1032D000DACCDECEE2D0E6D2EAD4EED6F2D8F6DA16
:1032E000FADCFEDE7311013473251034F3255030FF
:1032F0009706000093864602170600001306860410
:10330000137686FD136636007310563073901634AC
:103310007300203001000100010001000100730072
:103320000000130000001300000013000000130051
:103330000000130000001300000013000000010053
:10334000731015347390553073110134032001004C
:103350009240B2414242D2426243F24302549254FA
:103360002255B2554256D2566257F25706489648F1
:103370002649B649464AD64A664BF64B065C965CE9
:10338000265DB65D465ED65E665FF65F0961828049
:10339000000000000000000000000000000000002D
:1033A0000000F36704308280170300006700236089
:1033B000011106CE22CC32C42A842EC6970000000A
:1033C000E780C05CB245228597000000E7808060FE
:1033D000224622856244F240B2850561170300004F
:1033E0006700C364B707014083A607401347F5FF92
:1033F000F98E23A0D74083A64740F98E23A2D74059
:1034000083A68740F98E23A4D74083A6C740F98EB0
:1034100023A6D74081CD85466380D50285476300CA
:10342000F6040DC289476309F604828083A607402B
:10343000C98E23A0D740DDB783A64740C98E23A2FB
:10344000D740E9BFB707014083A68740558D23A425
:10345000A74083A6C740758F23A6E7408280B707A1
:10346000014083A68740758F23A4E74003A7C74088
:10347000598D23A6A7408280B707014003A7874044
:10348000498FDDB737070140832707405D8D232033
:10349000A7408280B707014023AAA740828093F704
:1034A000050193F8F50099C3B3E8C8008147054EBC
:1034B000BD4E130F8002930F800421433316FE008C
:1034C000758E1DC213972700832205003398EE00E6
:1034D0001348F8FF337858003397E8003367070143
:1034E0006399E50550C918C18507E39967FC054E46
:1034F000BD4E130F8002930F800441433316FE002C
:10350000758E05C61397270001178322450033984F
:10351000EE001348F8FF337858003397E80033671C
:103520000701639CE50150C958C18507E39867FC12
:103530008280E39AF5FB10C97DB7E397F5FF10C9C8
:10354000E5B7B7170240135765003E971443854708
:10355000B397A700D58F1CC38280B7160240DC4208
:10356000370740FF7D17F98F5D8DC8C28280797162
:10357000B705000822D441462A849385854308086C
:1035800006D697100000E780008BB70703049387E7
:10359000172002C03EC202C43EC6371702405C4339
:1035A000894689838D8B6397D70E5C439396F7008A
:1035B00063D606065C579396F70063DC06045C57F7
:1035C000585791832183BD8B3D8B93861700090744
:1035D000C5476313F7005147B7177A009387072051
:1035E000B3D7D702B387E7023717024058573D8B4E
:1035F000050733D7E702B7160240DC42D442C9833D
:1036000013962600BD8B6350060293E707018507DA
:103610000DA0B7177A0093870720F9B7B7173D00B9
:1036200013870790C9BFBD46E383D7FE8907638D23
:10363000D704B387E702B7160240D84210101183AF
:103640003D8B3297034507FFD84233D5A70021832E
:103650001D8B3297034607FED84214102D831D8B15
:1036600036978546034787FE630CD40005CC89470F
:103670006307F4028D473355E5006303F400014509
:10368000B2502254456182809947B307F7020583FF
:10369000BA9755B7B7177A009387072069BF335594
:1036A000C500F9BF3E85E9BFB71702409843B7068A
:1036B000FFE0B1061367170098C3D843758FD8C3CE
:1036C0009843B706F7FEFD16758F98C39843B70663
:1036D000FCFFFD16758F98C3D843B70601DFFD16B2
:1036E000758FD8C323A607029843B706F7EAFD16DD
:1036F000758F98C33707FF0098C794434167D98EE9
:1037000094C39307F7FF3717024014431396E6005C
:1037100063440600FD17F5FBB71702409843931664
:10372000E70063C3060001A0D843B706C4DFFD1657
:10373000D8C3D843D8C3D84313670740D8C3D843A6
:10374000758FD8C3D843B7062920558FD8C3D8570B
:10375000BD76758FD8D7D857C166938616F1558F29
:10376000D8D79843B7060004558F98C3B7170240BF
:10377000984393164700E3DD06FE9843B706001012
:10378000558F98C3B7170240984393162700E3DD7F
:1037900006FE9843B7060001558F98C3B71702403D
:1037A000984393166700E3DD06FED843719BD8C3A8
:1037B000D84313672700D8C3371702405C43A18B57
:1037C000F5DF8280371702405C43371600208546BC
:1037D00089838D8B130606816386D70081C789464E
:1037E0006388D700B7177A00938707201CC28280AE
:1037F0005C439396F70063DB06065C579396F700ED
:1038000063D106065C5758579183BD8B21839386FD
:1038100017009377F70013872700C5476313F70056
:103820005147B7177A0093870720B3D7D702B387DA
:10383000E7023717024058573D8B0507B3D7E70219
:10384000B7160240D842D4424983939526003D8B57
:1038500063D305021367070105073307F70218C290
:103860008280B7177A0093870720E1B7B7173D002A
:1038700093870790F1B7BD46E300D7FE0907E31E23
:10388000D7FC19473387E7028583BA9785B77971E3
:10389000B705000822D47D462A849385C5440A854D
:1038A00006D697000000E780005979468A850945C9
:1038B00097000000E780805AA28509459700000024
:1038C000E780E001B7050008054693858544094572
:1038D00097000000E780805801A079714ECEAE8934
:1038E000B705000809469385C54622D426D24AD09A
:1038F00052CC56CA06D62A89714497000000E78048
:10390000E0553D4AA54AF154B3178A00B3F7370191
:10391000B3D7870093F7F70F63ECFA029387070397
:1039200093F7F70F05469305F1004A857114A30735
:10393000F10097000000E7806052E31794FCB2505A
:10394000225492540259F249624AD24A4561828015
:1039500093877703F1B7B70700D1D8438843CC43A7
:10396000E39DE5FE8280B70700D223800700A38590
:1039700007001205B71700D23E9563E3A7008280C7
:1039800023A00700C107D5BFB71700D285070A05D6
:103990003E9585472300F5008280B71700D20A05BF
:1039A00085073E95230005008280370700D28347B4
:1039B00007000605798993F7170E5D8D2300A70090
:1039C0008280B70700D203C5070005813D89828048
:1039D000411122C426C206C62A84AE849700000084
:1039E000E78060FE9147114763E3A7002A873715F8
:1039F00000D20A040D052295834705009376F70F40
:103A0000A145B397E70093F7F70F958DB394B400F2
:103A1000B3D7E740C58F93F7F70F2300F500B24007
:103A20002244924441018280011122CC2EC606CE4E
:103A30002A8497000000E78000F98D47814563E9FB
:103A4000A702371700D20A040D0722978347070001
:103A5000B245A1463385A6409205B3D7A74093F55A
:103A6000F50FB397A700CD8F93F7F70F2300F7005B
:103A7000F24062442E8505618280F327503093F72F
:103A800007FC93E73700739057308280411106C6D8
:103A900097000000E78080C11305700597000000C3
:103AA000E780A0EC97000000E78060FD97C0FFFF73
:103AB000E780A079B240410117D3FFFF670023E2FE
:103AC00082800000000000000000000000000000F4
:103AD00000000000000000000000000000000000E6
:103AE00000000000000000000000000000000000D6
:103AF00000000000000000000000000000000000C6
:103B00005D7106C012C216C41AC61EC82ACA2ECCBF
:103B100032CE36D03AD23ED442D646D872DA76DCAD
:103B20007ADEFEC0F322103496C0F322003096C233
:103B3000F322407C96C4732520348A8597D0FFFFFA
:103B4000E780A04F86427390123496427390023001
:103B5000A6427390427C82401242A2423243C24348
:103B60005245E245724682561257A2573258C25801
:103B7000525EE25E725F864F61617300203000002A
:103B800000000000731101345D7106C012C216C43A
:103B90001AC61EC82ACA2ECC32CE36D03AD23ED44D
:103BA00042D646D872DA76DC7ADEFEC073D0E87E82
:103BB0007350F97E73D0B97EF390D07E7370043069
:103BC000B6427390427CA642739012349642739030
:103BD000223482401242A2423243C2435245E2455D
:103BE000724682561257A2573258C258525EE25E4F
:103BF000725F864F61617311013473002030AA82B5
:103C0000B68E214363C46E009102E11E8A0E3D43CD
:103C10003313D3011343F3FFAE83B3E3C300B39372
:103C2000D30103AE0200337E6E00336E7E0023A00C
:103C3000C2018280F18D2D8E4206D18D0CC9828009
:103C40004CC982804CC5828018458280B7120240E0
:103C500003A3C2013363A30023AE62008280B712C4
:103C6000024003A382013363A30023AC620082807D
:103C7000314597000000E780C0FE3715014013056D
:103C800005C081450D4681460D4797000000E7803D
:103C900040F78506E39BE6FE3715014013050580D6
:103CA000814511469546254797000000E78060F55D
:103CB0008506E39BE6FE97D2FF179382E2AC97D787
:103CC000FF178387E7AD17D8FF17030878AD930E6A
:103CD00070019303300083850200371501401305FE
:103CE00005C01D4697000000E78000F5371501402C
:103CF0001305058097000000E78040F59D89198332
:103D00001D8BE31AB7FC850285070508630578005B
:103D1000E383FEFAC9B79D4537150140130505C079
:103D20001D4697000000E78020F13715014013057C
:103D3000058097000000E78060F119831D8BE31C6C
:103D4000B7FC13080000828001A0AA8581460146C5
:103D500001451703000067008315411122C406C600
:103D6000970700009387671D2A8491C781459700B4
:103D70000000E780801C970700009387672988432D
:103D80001C5591C38297228597000000E78060B0A0
:103D90004111970700009387E72722C4170400000A
:103DA000130444271D8C26C206C60984BE8411E470
:103DB000B24022449244410182807D149317240032
:103DC000A6979C438297E5B7411197070000938718
:103DD000672422C4170400001304C4231D8C26C2C8
:103DE0004AC006C6098481443E89639684029707C7
:103DF000000093872722170400001304A4211D8CC0
:103E0000098481443E89639F8400B24022449244E5
:103E100002494101828093972400CA979C438504FC
:103E20008297E1B793972400CA979C4385048297B1
:103E3000D9BF2A8309CA83830500230073007D1636
:103E4000050385056DFA82802A8311C62300B3001D
:103E50007D16050365FE828097D7FF179387C79B62
:103E6000B2862E86AA858843170300006700830068
:103E7000411122C42A842E85B285368697D7FF1732
:103E800023AE07EC06C697E0FFFFE780C06CFD5746
:103E90006319F50097D7FF17938747EC9C4391C3AD
:103EA0001CC0B24022444101828097D7FF179387FC
:103EB000A7989C432A8E8DE717D7FF17130787DC37
:103EC00097D7FF1723AAE79617C5FFF713058513A2
:103ED000BA8719C51C4117D5FF172329F5E2BA8700
:103EE000D8437D487D556347E804630E0E0203A85E
:103EF00087086301080493182700C29823A0C8000C
:103F00000323081005463316E6003363C30023205D
:103F1000681023A0D80889466317DE00832648105E
:103F2000558E2322C810930617000A07D4C3BA97E8
:103F30008CC701458280797152CC56CA5AC85EC678
:103F400006D622D426D24AD04ECE62C42A8B2E8ADE
:103F500097DAFF17938A4A8E854B03A40A0011C88B
:103F60004440832984081389F4FF8A04A294635E81
:103F70000900B250225492540259F249624AD24A7C
:103F8000424BB24B224C45618280630E0A0063951E
:103F900009007D19F114E1BF93172900CE9783A77B
:103FA0000708E39847FF5840DC407D176318270354
:103FB00023222401F9DF032C44006388090083A62F
:103FC000091033972B01F98E89EE8297584083A709
:103FD0000A00E31487F9E30EF4FA41B723A20400C0
:103FE000D1BF93162900CE968C4283A64910758FB7
:0E3FF00001E75A858297D9BF2E858297C1BFFF
:0440000004030904A8
:0440040000000300B5
:0440080003020102AC
:04400C00A0070020E9
:10401000020000000000000000000000000000009E
:104020000000000000000000000000000000000090
:104030000000000000000000000000000000000080
:104040000000000000000000000000000000000070
:104050000000000000000000000000000000000060
:104060000000000000000000000000000000000050
:104070000000000000000000000000000000000040
:104080000000000000000000000000000000000030
:104090000000000000000000000000000000000020
:1040A0000000000000000000000000000000000010
:1040B0000000000000000000000000000000000000
:1040C00000000000000000000000000000000000F0
:1040D00000000000000000000000000000000000E0
:1040E00000000000000000000000000000000000D0
:1040F00009024300020100803209040000010202AB
:10410000000005240010010524010001042402021E
:1041100005240600010705820308000A09040100BE
:10412000020A0000000705030240000007058102A3
:1041300040000000FF000000461300088C13000838
:104140005014000810140008C413000800000000F8
:10415000000000000000000000000000000000005F
:10416000000000000000000000000000000000004F
:10417000000000000000000000000000000000003F
:10418000000000000000000000000000000000002F
:10456000000000000000000000000000D003000870
:10457000E000002000000000E4030008000000004C
:10458000000000000000000000000000000000002B
:10459000000000000000000000000000000000001B
:1045A000000000000000000000000000000000000B
:1045B00000000000000000000000000000000000FB
:1045C00000000000000000000000000000000000EB
:1045D00000000000000000000000000000000000DB
:1045E00000000000000000000000000000000000CB
:1045F00000000000000000000000000000000000BB
:1046000000000000000000000000000000000000AA
:10461000000000000000000000000000000000009A
:10462000000000000000000000000000000000008A
:10463000000000000000000000000000000000007A
:10464000000000000000000000000000000000006A
:10465000000000000000000000000000000000005A
:10466000000000000000000000000000000000004A
:10467000000000000000000000000000000000003A
:10468000000000000000000000000000000000002A
:10469000000000000000000000000000000000001A
:1046A000000000000000000000000000000000000A
:1046B00000000000000000000000000000000000FA
:1046C00000000000000000000000000000000000EA
:1046D00000000000000000000000000000000000DA
:1046E00000000000000000000000000000000000CA
:1046F00000000000000000000000000000000000BA
:1047000000000000000000000000000000000000A9
:104710000000000000000000000000000000000099
:104720000000000000000000000000000000000089
:104730000000000000000000000000000000000079
:104740000000000000000000000000000000000069
:104750000000000000000000000000000000000059
:104760000000000000000000000000000000000049
:104770000000000000000000000000000000000039
:104780000000000000000000000000000002000027
:1047900000000000010203040506040205010603EF
:1047A00002010406050203040105060400000000DE
:1047B00000000000000000000000000000000000F9
:1047C00000000000000000000000000000000000E9
:1047D00000000000000000000000000000000000D9
:1047E00000000000000000000000000000000000C9
:1047F00000000000000000000000000000000000B9
:1048000000000000000000000000000000000000A8
:10481000FF00000000C201000000080001010000CC
:0848200000F36F06A007002061
:040000050800015C92
:00000001FF
