:020000040800F2
:10000000B1AA010000000000000000000000000094
:10001000000000000000000000000000AE540008D6
:1000200000000000000000000000000000000000D0
:1000300000000000000000000000000000000000C0
:1000400000000000000000000000000000000000B0
:1000500000000000000000000000000000000000A0
:100060000000000000000000000000000000000090
:100070000000000000000000000000000000000080
:100080000000000000000000000000000000000070
:100090000000000000000000000000000000000060
:1000A0000000000000000000000000000000000050
:1000B0000000000000000000000000000000000040
:1000C0000000000000000000000000000000000030
:1000D0000000000000000000000000000000000020
:1000E00000550008000000000000000000000000B3
:1000F00000000000163300080000000000000000AF
:1001000000000000000000000000000000000000EF
:1001100000000000000000000000000000000000DF
:1001200000000000000000000000000000000000CF
:1001300000000000000000000000000000000000BF
:1001400000000000000000000000000000000000AF
:100150000000000000000000063300087370043047
:10016000170500001305C5FF8545F605637BB5003F
:1001700089816378B500170500001305C5002E9529
:1001800002859302002073A0027D970200009382F3
:1001900062E773907230976200009382E206739078
:1001A000C27E73E0C07E976200009382A2FD7390CE
:1001B000523097110018938161E5177100181301EF
:1001C00061E4177500001305A52F970500189385A6
:1001D00065E3170600181306E66463FAC500832278
:1001E000050023A0550011059105E3EAC5FE17059A
:1001F0000018130525639715001893852539637733
:10020000B500232005001105E36DB5FE73F0023241
:10021000177500001305A50197700000E780C0FC6A
:1002200097700000E780200497500000E780600787
:100230000145814597100000E78080A417730000F6
:10024000670083FB01A073E00232828073F0023208
:0402500082800000A8
:10028000E41500088215000882150008F61500081C
:10029000081600081A1600082C1600082B0000008B
:1002A00030313233343536373839414243444546AC
:1002B00000000000537570706F7274656400000078
:1002C0005061636B657453697A653D3130393B68C1
:1002D00077627265616B2B004F666673657473009D
:1002E000546578743D303B446174613D303B4273EA
:1002F000733D303B0000000053796D626F6C00006D
:100300004F4B000043000000545374617475730038
:1003100066546872656164496E666F0031656C0091
:10032000417474616368656400000000300000007F
:100330004D7573745265706C79456D7074790000F9
:10034000436F6E743F0000005330350016034700C2
:100350006900670061004400650076006900630081
:1003600065000000380347004400330032002000DD
:100370005500530042002000430044004300200089
:10038000410043004D00200069006E00200046003F
:10039000530020004D006F00640065000000000065
:1003A0002E03470044003300320058005800580024
:1003B0002D0033002E0030002E0030002D003700BD
:1003C0007A0038007800390079006500720000007A
:1003D0001201000202000040E9288A010001010226
:1003E00003010000AC7400084C030008640300081B
:1003F000A00300080000000001000000020000004F
:1004000003000000AC3A0008DC3C0008D6380008C5
:100410005C3C0008D6380008F83B00080A390008A0
:10042000743D0008663B0008043A0008A23B00083F
:10043000CE3B0008783D00080000000000000000EE
:1004400001020304060708090A0000000A50726F3F
:100450006772616D206861732065786974656420D6
:100460007769746820636F64653A00003078000033
:10047000000000000000000000000000000000007C
:100480000000000808080808080800001818000004
:1004900000486C2412000000000000000000000072
:1004A0000000002424247F1212127F121212000076
:1004B0000000081C2A2A0A0C1828282A2A1C0808C6
:1004C00000000022251515152A5854545422000006
:1004D0000000000C1212120A76252911916E0000FC
:1004E00000060604030000000000000000000000F9
:1004F00000402010100808080808081010204000CC
:10050000000204080810101010101008080402005F
:100510000000000008086B1C1C6B080800000000AD
:1005200000000000080808087F080808080000000C
:1005300000000000000000000000000006060403A8
:100540000000000000000000FE00000000000000AD
:10055000000000000000000000000000060600008F
:10056000000080404020201010080804040202000F
:100570000000001824424242424242422418000035
:10058000000000080E08080808080808083E0000D7
:100590000000003C4242422020100804427E00003D
:1005A0000000003C4242201820404042221C000033
:1005B000000000203028242422227E202078000001
:1005C0000000007E0202021A26404042221C000067
:1005D000000000382402021A264242422418000079
:1005E0000000007E222210100808080808080000F9
:1005F0000000003C4242422418244242423C000097
:10060000000000182442424264584040241C00006C
:10061000000000000000181800000000181800007A
:1006200000000000000000080000000000080804AE
:1006300000000040201008040204081020400000C0
:100640000000000000007F0000007F0000000000AC
:1006500000000002040810204020100804020000DE
:100660000000003C424246402010100018180000D4
:100670000000001C225A555555552D42221C0000E1
:100680000000000808181414243C224242E700002D
:100690000000001F2222221E22424242221F00008E
:1006A0000000007C4242010101010142221C0000C5
:1006B0000000001F2242424242424242221F0000EA
:1006C0000000003F4212121E12120242423F00007E
:1006D0000000003F4212121E121202020207000026
:1006E0000000003C2222010101712122221C000095
:1006F000000000E7424242427E42424242E700009E
:100700000000003E0808080808080808083E000025
:100710000000007C10101010101010101010110F9D
:100720000000007722120A0E0A121222227700001D
:10073000000000070202020202020202427F0000E1
:1007400000000077363636362A2A2A2A2A6B00001D
:10075000000000E346464A4A525252626247000095
:100760000000001C2241414141414141221C000046
:100770000000003F424242423E02020202070000E5
:100780000000001C2241414141414D53321C600098
:100790000000003F4242423E1212222242C70000A5
:1007A0000000007C4242020418204042423E000009
:1007B0000000007F4908080808080808081C000015
:1007C000000000E74242424242424242423C0000B4
:1007D000000000E7424222242414141808080000F4
:1007E0000000006B49494949555536222222000034
:1007F000000000E7422424181818242442E70000CF
:10080000000000772222141408080808081C0000C1
:100810000000007E2120101008040442423F000026
:100820000078080808080808080808080808780078
:100830000000020204040808081010202020404094
:10084000001E1010101010101010101010101E00AC
:10085000003844000000000000000000000000001C
:10086000000000000000000000000000000000FF89
:10087000000608000000000000000000000000006A
:10088000000000000000003C4278444242FC0000AE
:10089000000000030202021A26424242261A000009
:1008A000000000000000003844020202443800004A
:1008B00000000060404040784442424264D800005A
:1008C000000000000000003C427E0202423C0000AA
:1008D000000000F08808087E08080808083E0000AC
:1008E000000000000000007C22221C023C42423C2E
:1008F000000000030202023A4642424242E7000080
:100900000000000C0C00000E08080808083E00005B
:100910000000003030000038202020202020221E3F
:100920000000000302020272120A1612227700006F
:100930000000000E0808080808080808083E000023
:10094000000000000000007F9292929292B7000097
:10095000000000000000003B4642424242E7000027
:10096000000000000000003C42424242423C0000C5
:10097000000000000000001B26424242221E020727
:10098000000000000000007844424242447840E009
:1009900000000000000000774C040404041F000065
:1009A000000000000000007C42023C40423E00008B
:1009B000000000000008083E080808080830000091
:1009C00000000000000000634242424262DC00007E
:1009D00000000000000000E7422424140808000082
:1009E00000000000000000EB49495555222200009C
:1009F000000000000000007624181818246E000083
:100A000000000000000000E7422424141808080732
:100A1000000000000000007E22100808447E000054
:100A200000C0202020202010202020202020C000D6
:100A300010101010101010101010101010101010B6
:100A40000006080808080810080808080808060032
:100A5000AAAA5555AAAA5555AAAA5555AAAA55559E
:100A6000000000000040AF40010000000400000052
:100A7000070000000E00000002000000050000005A
:100A80000800000000000000030000000600000055
:100A9000090000000F0000000A0000000B00000029
:100AA0000C0000000D0000000D0000000F00000011
:100AB000000000000E0000000C0000000900000013
:100AC00008000000070000000B0000000600000006
:100AD00005000000040000000A0000000300000000
:100AE00002000000010000004F4B2100455252005F
:100AF00049442D3030300A0049442A3030300A0051
:100B0000534554008C5F0000DC5E0000E25E000094
:100B1000DC5E00007E5F0000DC5E0000E25E000044
:100B20008C5F00008C5F00007E5F0000E25E0000D2
:100B3000C25E0000C25E0000C25E0000E65E000011
:100B40009263000092630000AA6300008C630000BF
:100B50008C63000038640000AA6300008C6300000E
:100B6000386400008C630000AA6300008A63000000
:100B70008A6300008A6300003864000000010202FA
:100B80000303030304040404040404040505050525
:100B90000505050505050505050505050606060601
:100BA00006060606060606060606060606060606E5
:100BB00006060606060606060606060607070707D1
:100BC00007070707070707070707070707070707B5
:100BD00007070707070707070707070707070707A5
:100BE0000707070707070707070707070707070795
:100BF0000707070707070707070707070808080881
:100C00000808080808080808080808080808080864
:100C10000808080808080808080808080808080854
:100C20000808080808080808080808080808080844
:100C30000808080808080808080808080808080834
:100C40000808080808080808080808080808080824
:100C50000808080808080808080808080808080814
:100C60000808080808080808080808080808080804
:100C70000808080808080808080808082D7102C2B2
:100C800002C4FD573EC802CA02CC854702CE3ED000
:100C900002D202D402D6B7150008232C811002D844
:100CA000138485A613060004938585A68818232E31
:100CB0001110232A911023282111232441112322CA
:100CC000511123206111DEDFE2DD23263111E6DB45
:100CD000EAD902DA97600000E780805F130600041B
:100CE00093050404081997600000E780605E82C8DD
:100CF00082CA231C010482C02312010423030104BD
:100D000002DC231E010282CE82D082D245469305A8
:100D1000000282D4E8082306010682C423160104D7
:100D20002307010497600000E780E05B9750000014
:100D3000E780405C97500000E780E05F975000003C
:100D4000E780E06697500000E780206E05459740F9
:100D50000000E7806058054597500000E780C0B26A
:100D600097500000E780A0B44165130505809750B7
:100D70000000E78000FA97500000E7800014054566
:100D8000856497500000E780C02D0149974000001E
:100D9000E780C091938404E1B71A0008371B00086C
:100DA000B71B0008371C0008371A0008E247B729AC
:100DB000014085073ECC97500000E780A08689451A
:100DC0001385094097400000E780608B85472A849F
:100DD000631FF51291451385094097400000E78095
:100DE000008A631F851881451385094097400000DC
:100DF000E78020862A8D97400000E78020E4335565
:100E00009502930CC003130400683304A4412AD450
:100E100097400000E78080E23375950233559503D3
:100E20002AD697400000E78060E133759503A94C0E
:100E30002AD822551375F50F97500000E780A019A6
:100E400032551375F50F97500000E780C0184255D2
:100E50001375F50F97500000E780E0171305900415
:100E600097500000E78020171305400497500000BA
:100E7000E78060161305B00297500000E780A015C8
:100E800015453344A4021305400665043345A40206
:100E9000130505031375F50F97500000E780A013A5
:100EA0003345940333659503130505031375F50F57
:100EB00097500000E7802012336594031305050363
:100EC0001375F50F97500000E780E0102945975003
:100ED0000000E780401023000104A3000104230167
:100EE0000104A301010423020104A30201048945B2
:100EF000138509402303010497300000E780C07880
:100F000091451385094097300000E780E07737442A
:100F1000014095451305048097400000E78020F4C8
:100F200061C51305048097400000E78040F1137508
:100F3000F50FA301A1008347310029476305F7029C
:100F4000F24798199419CA97BA9713070002238693
:100F5000E7F6F24703473100CA9785071377F70F83
:100F6000B6972386E7F6954763C227058347310086
:100F700098194A9793F7F70F2304F7F405093DB53D
:100F80001385094097300000E780206C9355854019
:100F90002A84114597500000E780E047A285154557
:100FA00097500000E78020478945A1BF9257054729
:100FB0006381E70C09476383E70CE1EF8347310066
:100FC000130790046303F70002D0925785073ED2BF
:100FD000F247034731009419B6971377F70F238030
:100FE000E7F6F24785073ECE97500000E780A03332
:100FF000E30E05DA97500000E780E03797500000D5
:10100000E780003E924785073EC212479307803E25
:10101000631CF70002C2A2450145938715003EC438
:1010200097500000E780203F97500000E780004382
:101030002AC663400528B24798198A07BA9783A73A
:1010400007FC2D476386E7286340F7182947638824
:10105000E722B247941952578A07B69783A707FC2D
:10106000369793870703230CF7F4D25785073EDAA8
:1010700005A48347310013074004A9B78347310013
:101080001307B002E303F7F4834731001307D002DC
:1010900015BF83493100A94793F9F90FE39AF9F293
:1010A00041641305048097500000E78080C6825792
:1010B00005479306F4FF9008A94513056004E1CBAA
:1010C00097500000E78060D97245A9450547330570
:1010D00035039306F4FF13068AAE13056504975093
:1010E0000000E78080D79307F0042305F1069307FB
:1010F000B004A305F106930710022306F106034589
:10110000A10693058AAE97600000E780C01E814764
:10111000724763C2E70A85473ED002D2416902CED8
:1011200001447D1999499C19A29703C687F41315A8
:1011300034004A871306060385461376F60FA94541
:101140002905050497500000E78040C3E31D34FDE6
:1011500041690144954C7D19C5499C19A29703C664
:10116000C7F613153400290563CD8C041306060356
:101170004A8785461376F60F93058002050497503B
:101180000000E780A0BFE31A34FD014905B1975084
:101190000000E78080CC724505479306F4FF3305D5
:1011A00035031306CCAEA94513056504975000001E
:1011B000E780A0CAA9BF98193E97230007F68507C4
:1011C00081BF4A8785464DBF3147638AE71A354755
:1011D000E391E7E841641305048097500000E7803D
:1011E00040B383478104A94903479104938707FDCE
:1011F000B3873703130707FD9306C003BA973ED49E
:101200008347A1040347B104938707FDB3873703DE
:10121000130707FDBA973ED68347C1040347D1049D
:10122000938707FDB3873703130707FDBA973ED8A7
:10123000A25732574255B38797023307D702BA975E
:101240003E9597400000E780C09605479306F4FF5F
:10125000B000A945294597500000E78000C05255CD
:1012600005479306F4FF05053305350313860BB0D8
:10127000A94597500000E78040BE02DA11A8372543
:10128000014085451305054097300000E780E039AF
:10129000D2479419054585073ECAB24752478A0787
:1012A000B69783A507F81207BA9597500000E78014
:1012B0008016E2450945A18597500000E780A015FA
:1012C000E2450D4597500000E780E01402CCF9BCE0
:1012D00097400000E7808096335595021304C003C1
:1012E0002AD497400000E780609533759502335506
:1012F00085022AD697400000E78040943375850226
:1013000029442AD82255334585021375F50F975085
:101310000000E78040CC2255336585021375F50F38
:1013200097500000E78020CB325533458502137576
:10133000F50F97500000E78000CA325533658502EB
:101340001375F50F97500000E780E0C8425533450C
:1013500085021375F50F97500000E780C0C742550E
:10136000336585021375F50F97500000E780A0C61E
:1013700013850AAF97500000E78080CC11BF9740DB
:101380000000E780A08B335595021304C0032AD4D4
:1013900097400000E780808A3375950233558502B7
:1013A0002AD697400000E7806089337585022AD8E5
:1013B00022551375F50F97500000E780C0C13255D4
:1013C0001375F50F97500000E780E0C04255137584
:1013D000F50F97500000E78000C013058BAF59BF91
:1013E000411102C641018280B707002023A00700F7
:1013F0008280011122CC26CA4AC84EC652C406CEEB
:10140000AA842324050C2326050C2328050C01445B
:10141000371A00D205499309700593172400D29713
:1014200083C7170063982703935754408A07A697EA
:1014300083A6870C33178900D98E23A4D70C83A7E2
:10144000470D93C7F7FFF98F91C72285974000009A
:10145000E78080D40504E31234FDF2406244D244B4
:101460004249B249224A05618280011122CC26CA32
:101470004AC84EC606CE2A890144854993047005A0
:10148000935754408A07CA9703A7870CB3968900DD
:10149000758F01CF83A7470D93C7F7FFF58F91C7CE
:1014A000228597400000E78000CE0504E31A94FCF3
:1014B000F2406244D2444249B2490561828093D7E6
:1014C00055008A073E958547B397B7008325450D9C
:1014D000DD8D232AB50C8280AA85370500201305EF
:1014E0000500170300006700C3FD757122C526C300
:1014F0002A84AE841306000881450A8506C79760D2
:101500000000E78040DE814713070008338697001C
:101510001042B306F100910790C2E399E7FE8A8575
:1015200022851306000897600000E78060DA2285B4
:10153000BA402A449A44496182801377F5058D4761
:10154000630AF700996785077D8DF1773E9513351E
:1015500015008280054582801C410D4793F63700B7
:101560006391E61613F7370613063006631DC7109E
:1015700013D727001D8B05466309C70E09C76300F3
:10158000D70C1105828085669386068013D74701A4
:1015900013964700758E9376077E558E93D6770007
:1015A000F98A558E63D40700FD76558E93D6F700E1
:1015B000B1839D8BFD171948FD8A7D8B636AF80006
:1015C000370800088A0713080828C2979C438287B7
:1015D0008A060A07AE962E9794421C43E393F6FAC6
:1015E000329582808A060A07AE962E9794421C4353
:1015F000E398F6FE79B78A060A07AE962E979442CC
:101600001C43E3D0F6F8E9BF8A060A07AE962E9788
:1016100094421C43E3C7F6F6E1B78A060A07AE9682
:101620002E9794421C43E3FEF6F45DBF8A060A0738
:10163000AE962E9794421C43E3E5F6F455B78566C3
:101640009386068013D79700758FB7F60F00FD8E2F
:10165000558F93D6470193F6E67F558F63D50700E4
:10166000B707F0FF5D8F3A95828013D5470163D4A9
:1016700007007D77598D13D7D7001377C7072E97AB
:101680001C433E958280370720001307370733F647
:10169000E700E318E6EEE1830547638EE70089CBB8
:1016A0000947638DE700E39ED7EC732510348280F1
:1016B00073251004828073251014828073251024F2
:1016C000828099E20905828005476396E60E13D76A
:1016D000D7001D8B15466306C7006367E604E31356
:1016E000D7FE13D7270093D67700C18A398B558F41
:1016F0009396270093F60640558F9396170093F61E
:101700000608558F9396370093F60602558F856627
:10171000138606B48583F18FD98F93860680FD8E5C
:10172000ADD27D77D98FB1BF99466305D7049D4669
:10173000E31AD7F813D7770093961700137687012B
:1017400093F6060CD18E13D62700198AD18E1396E4
:101750003700137606029183D18E93F70710DD8E42
:1017600099C393E606F01D8B21070A072E971C43A9
:10177000B1DB81A013D7770093961700137687010A
:1017800093F6060CD18E13D62700198AD18E1396A4
:101790003700137606029183D18E93F70710DD8E02
:1017A00099C393E606F01D8B21070A072E971C4369
:1017B00091FB3695828039671307F707A1667D8F05
:1017C0008906E311D7F005679D83130707F87D8F1E
:1017D000E30A07EEFD8B8A073387F5000843828012
:1017E0001387450981479146104319EE9207370741
:1017F0000400AE971307C70723A4E708054723A6ED
:10180000A70823AAE708828085074107E39ED7FC43
:101810008280370704009387850811079385850C1C
:10182000D4436395A60098C323A60700C107E39994
:10183000B7FE82807390057AB70704009387C707C5
:101840007390177A7310257A8280B7470008411188
:101850009387071806C693E7370073905730B7870A
:10186000002083A70700739007341305206097308A
:101870000000E78000FF1305006097300000E7805C
:1018800040FE896637150140938606800D46E14586
:101890001305058097300000E78000F197100000E5
:1018A000E780809D3715000885451305053E9700A4
:1018B0000000E78060F8B2404101170300006700B4
:1018C00063B27310057AB707040091077390177A13
:1018D00082807310057AF327007A6313F502732769
:1018E000107A930785009207AE9798C7F327207A5E
:1018F00012052E952326F508F327307A2328F508BC
:10190000828013058508814711477390077A144137
:101910007390167A54417390267A85074105E396B1
:10192000E7FE8280814701476395B7001375F70F83
:101930008280B306F50083C6060085073697EDB7AB
:10194000130101DF2324812023261120232291204B
:101950002A84814513070040B307B40083C70700FA
:1019600081C78505E39AE5FE228597000000E780A0
:10197000A0FB8A868145AA841306002036859760DD
:101980000000E780409693074002AA862300F100FA
:101990001307B41F9305110083470400BDE39307A9
:1019A00030022380F50013D74400B707000893875F
:1019B000072ABD881377F70F3E97A69703470700BE
:1019C00083C70700A3810500A380E5002381F500FC
:1019D0008D053685958D97100000E78080889730BB
:1019E0000000E7806084054597000000E7800079EB
:1019F0008320C1200324812083244120130101215D
:101A00008280E30EE4F885050504A38FF5FE69B72F
:101A10008147930600403387F5000347070001C75D
:101A20008507E39AD7FE01476314F70005458280D6
:101A30003306E500B386E5000346060083C60600CC
:101A40006314D6000507CDB701458280130101DD7F
:101A5000232E3121130600208145AA890A852326D9
:101A60001122232291222324812223202123232C8B
:101A70004121232A51212328612123267121232456
:101A800081212322912197600000E780C085930582
:101A900000200A8597000000E780807D81442DC5E5
:101AA000371400202A8A01498144930B4002130411
:101AB0000486130C3002894A0D4BB70C0008B3079B
:101AC000210183C707006395770305472302E420BC
:101AD00023200420032704209306170022972320A5
:101AE000D4202300F700639E87012302542111A80C
:101AF0000347442063045705630E67058546E30BDF
:101B0000D7FC0509E31D2AFB8320C122032481227F
:101B1000268503290122832441228329C121032A06
:101B20008121832A4121032B0121832BC120032CF6
:101B30008120832C4120130101238280032704206C
:101B4000230264219306170022972320D420230028
:101B5000F70045BF03270420230204209304170045
:101B600022972300F70023209420814763E4970203
:101B7000B38799002380070085451385CC2923204E
:101B8000042097000000E780C06D97200000E780E8
:101B9000A06985BF3307F400834607003387F90047
:101BA00085072300D700D9B723200600254895468E
:101BB000AA9503470500930707FD93F7F70F637195
:101BC000F8029307F7F993F7F70F63F8F602930714
:101BD000F7FB93F7F70F63E4F600631BB500828011
:101BE0001C429207938707FDBA971CC20505D1B71F
:101BF0001C429207938797FCC5BF1C4292079387AC
:101C000097FADDB7130101DE232C8120232E11204A
:101C100083C71500130770062A846386E7182E858C
:101C2000636DF70213078004638AE736636DF7007C
:101C30001307F0036382E7348320C1210324812149
:101C40001301012282801307A005638CE73213077A
:101C50003006E393E7FE914731AE13073007638AFE
:101C6000E730636CF7101307D006638CE724130783
:101C70001007E393E7FC13842500B705000893855C
:101C8000452B228597000000E780C0D809C9370599
:101C900000081305052C97000000E780A0CAB705CF
:101CA00000089385852D228597000000E78080D667
:101CB00009C9370500081305052E97000000E780C5
:101CC00060C8B70500089385852F2285970000001E
:101CD000E78040D409C9370500081305053097008F
:101CE0000000E78020C6B7050008938545302285AF
:101CF00097000000E78000D209C9370500081305E6
:101D0000452F97000000E780E0C3B70500089385E2
:101D10008530228597000000E780C0CF09C93705CC
:101D200000081305452F97000000E780A0C1B70504
:101D3000000893850531228597000000E78080CD5B
:101D400009C9370500081305C53197000000E78071
:101D500060BFB70500089385053222859700000013
:101D6000E78040CBE30A05EC370500081305C532D0
:101D700097000000E78000BDC1B5130760076386C8
:101D8000E71A1307A007E399E7EA3000A145110518
:101D900097000000E78080E12245A28597000000BF
:101DA000E78060A7E5AA1408B70700089305450077
:101DB000130845089387072A368598419105A1069F
:101DC000135647403D8A3E9603460600238CC6FEC6
:101DD0001376F7003E9603460600A38CC6FE135604
:101DE000C7403D8A3E9603460600238DC6FE135625
:101DF00087403D8A3E9603460600A38DC6FE1356D5
:101E000047413D8A3E9603460600238EC6FE135682
:101E100007413D8A3E9603460600A38EC6FE135632
:101E2000C70161873D8B3E963E97034606000347F8
:101E30000700238FC6FEA38FE6FEE310B8F8032742
:101E40004408230C011093564700BD8ABE9683C6F2
:101E500006002308D1109376F700BE9683C60600CD
:101E6000A308D1109356C700BD8ABE9683C606004C
:101E70002309D11093568700BD8ABE9683C60600FB
:101E8000A309D11093564701BD8ABE9683C60600AA
:101E9000230AD11093560701BD8ABE9683C6060059
:101EA000A30AD1109356C70161833D8BBE96BA97A2
:101EB00083C6060083C70700230BD110A30BF110C4
:101EC00045BD3000A145090597000000E78000CE20
:101ED0007000A145050597000000E78020CD32483D
:101EE000A24818083706000881473A851306062AD3
:101EF000639807018607180CBA97238007E08DBD09
:101F0000B385170183C60500850709079182B2963C
:101F100083C60600230FD7FE83C60500BD8AB2968E
:101F200083C60600A30FD7FEE1B713842500B705CB
:101F3000000893850533228597000000E78080AD77
:101F400009C9370500081305452F97000000E780F1
:101F5000609FB7050008938505342285970000002F
:101F6000E78040ABE30A05CC370500081305452F91
:101F700001B58D471CC0C9B137050008130585346C
:101F8000C5BBA1453000110597000000E78000C2E5
:101F90002245A28597000000E780C084370500082D
:101FA00013050530F1B3130101CD080923261132C1
:101FB000232481322320213337040020232291322D
:101FC000232E313197F0FFFFE780605213050400A4
:101FD00097F0FFFFE7802042130904001306000872
:101FE0000C091305490097500000E780602E02C7D6
:101FF00073D0007AF32710343EC7BA47A2849309FE
:1020000004002322F9088327090085EB7350007A26
:10201000B707040091077390177A854723A0F9004A
:1020200001441149228593850400050497000000AE
:10203000E780608AE31824FF11A80D476385E71243
:1020400011476385E70E0947E389E7FC01459700DF
:102050000000E7804087054597000000E780A086E4
:10206000094597000000E78000860D4597000000B5
:10207000E7806085054597000000E7802010130683
:1020800000208145080A97500000E780C0253705E9
:1020900000081305853497000000E780A08A972088
:1020A0000000E7806018054597000000E780000DFC
:1020B0003A44130600080C090A8597500000E7808F
:1020C000202122858A8597F0FFFFE7802049BA47C3
:1020D0002A84884397F0FFFFE780604619C1731098
:1020E000143422C70544080A97000000E780409690
:1020F0003DCD0C0A1385040097000000E780C0B0B6
:1021000083A70900F5176364F4063A45854597F0FF
:10211000FFFFE780607297200000E780E0101385E2
:10212000040097F0FFFFE78080340DA01305040042
:1021300097F0FFFFE780207D8947130504002320E7
:10214000F90097F0FFFFE780803201458320C1321C
:102150000324813283244132032901328329C1318E
:10216000130101338280854723A0F900C5B597206C
:102170000000E780600B85BF011122CC4EC652C41F
:1021800006CE26CA4AC8AA8997300000E78080FC9C
:102190002A8A2E8497300000E780C0FBAA842E890B
:1021A0006314AA00E308B4FE0564371A0020130480
:1021B00004FA97300000E780E0F983278A8133072B
:1021C00095403335E500B3D78702B3852541B38702
:1021D00037036394A500E36EF7FCF2406244D244F7
:1021E0004249B249224A05618280011122CC4EC681
:1021F00052C406CE26CA4AC8AA8997300000E78092
:1022000060F52A8A2E8497300000E780A0F4AA8423
:102210002E896314AA00E308B4FE37143D00371A70
:1022200000201304049097300000E780A0F2832779
:102230008A81330795403335E500B3D78702B385EC
:102240002541B38737036394A500E36EF7FCF240A2
:102250006244D2444249B249224A056182802E86B4
:10226000AA850145171300006700E3251713000036
:1022700067000310411106C697100000E780201E7A
:102280001305600597F0FFFFE78040251305D00395
:1022900097F0FFFFE780802497100000E78060211F
:1022A00001C5B2404101828013054006970000003D
:1022B000E780C0ECD5B7411122C4370400201304D5
:1022C000040E9305C40306C626C2AA849710000014
:1022D000E780403993055403268597100000E78076
:1022E000603893055402268597100000E7808037F8
:1022F000B24022449244014541018280411193053C
:10230000100806C622C42A8497100000E780203FE8
:102310008D45228597100000E780603E2285930559
:10232000200897100000E780803DB240224401451C
:1023300041018280411106C691E997000000E780C3
:10234000A0158947B2403E85410182808D4689476C
:10235000E39AD5FEB71700200547238AE780971038
:102360000000E780C04DB717002023A0A782B71751
:10237000002003A74782814771D702978147D9B7C9
:102380000547639DE5020327050F8357850EB37745
:10239000F70291EF09CF41118146014606C6971019
:1023A0000000E780603DB240014541018280B717DF
:1023B00000200547A38AE780014582800945828085
:1023C00083C7150013071002638EE7046368F700E4
:1023D00013070002638DE702014582801307200284
:1023E000638FE70813073002E398E7FE411106C642
:1023F00073251034814597F0FFFFE780E04397F0A5
:10240000FFFFE780A0FEB2400145410182803717FF
:1024100000202324F780B717002093874757232AEB
:10242000F5265DBF371700201307C7801443B71781
:1024300000209387475713D686002380D700A380B8
:10244000C70013D60601E182A381D7008346470067
:102450002381C7002328F50C2382D7008346570029
:1024600003476700A382D7002383E70083C7750073
:1024700003C76500A207D98F232EF50CB1BF83C710
:10248000350003C72500A207D98F37170020232462
:10249000F78299B7B7150020938585809C41130575
:1024A000F00F6386A704B717002003C6575783C6EB
:1024B0004757371700202206558E83C667571307E4
:1024C000C78088C1C206558E83C677579387475702
:1024D000E206D18E14C383C647002302D70083C609
:1024E000570083C76700A302D7002303F700014505
:1024F0008280411106C622C426C2894723020500F4
:10250000A300F5002300C50011CA0547630BE608C8
:102510000545B24022449244410182803147230163
:10252000E5001947A301E500A302F500B704044044
:10253000AE8705472303E500A303E5002A841306BD
:10254000C00B81453E8597500000E780C0D90567E4
:1025500093060780A69654C19386044014C59386BB
:10256000044434DD930607E0A696232CD50A04C163
:102570008345340013070790AA8726979306C50062
:102580000146636BB6020346240005679386045038
:102590009387C703BA94856501476368C7020145FD
:1025A0008DBF21472301E5001147A301E500A302E8
:1025B000F500B7040050ADBF1305072098C288CEC0
:1025C00005061307070291066DBF94C3A4C3050750
:1025D000938606029107AE94C9B71C4201112EC61C
:1025E000985F98478346D10022CC799B06CE26CAB5
:1025F00098C72AC4054732846395E606370710005A
:1026000098DFD847B706E0FF9386F6FB758FD8C7EB
:10261000D847B706F0FFFD16758FD8C7984B1367DC
:10262000170098CB984B058B75FF0D459710000050
:10263000E780A0CC0347C1008547631EF7001C401C
:1026400098471367070298C79847059B98C798470C
:102650001367A70098C7F2406244D2440145056160
:102660008280D84793D4050193F4F40F13670704CD
:10267000D8C7984B1367170098CB984B058B75FFFD
:102680000D4597100000E78040C7B7072D0099C09F
:10269000B7073D00184051451CDF97100000E78048
:1026A00040C649BF71060A062A968D0689825046A1
:1026B0008A06AE966394B6000145828003C7150072
:1026C00083C70500910522075D8F83C7E5FFC20719
:1026D0005D8F83C7F5FFE207D98F1CC2E1BF0D06EE
:1026E0000982785D0A062E966394C5002E85828045
:1026F0001C43910593D68700238EF5FEA38ED5FE4D
:1027000093D60701E183238FD5FEA38FF5FEE9BFA2
:10271000184141119A0506C693E505020CCB1C4BE6
:1027200093F70702EDFF0D4597100000E780E0BC2E
:10273000B2400145410182801841411106C6C1479E
:102740001CCB1C4BC18BF5FF0D4597100000E7809B
:10275000C0BAB2400145410182801C457D57D8C3B3
:10276000370700C07D17D8CB3717008013070780C5
:1027700098CF0347450009E7984F1367070198CFA3
:10278000984FB7360C00A906558F98CF984701454A
:102790001367170098C782801C45B70600A0411137
:1027A000D847FD1622C406C626C2758FD8C7D8479B
:1027B000B70600407976558FD8C70327050C130656
:1027C000F67F2A842320070058451443F18E14C352
:1027D000144314C31443F19A14C3034605008546F9
:1027E000631AD602144393E6360014C31307000895
:1027F000D8D3370740001307070898D7370780005A
:102800001307070C23A2E7101307001423A4E710F3
:1028100023A6E71093048400C14526859700000095
:10282000E78040EF268597000000E78020F15C44B8
:102830007D57814623A8070023AA070098CF23AE1F
:1028400007000348340013074401B7050048130587
:10285000F00F63ED0601228597000000E78020F06D
:10286000B240224492440145410182801C4390437E
:102870006355060290434D8E90C323A8070088C776
:102880001C4F9043635E060090434D8E90C323A877
:10289000070088C7850611076DBF23A00700F1BF99
:1028A00023A00700EDB758455C4393E727005CC3BE
:1028B000828058455C43F59B5CC382805C459205F1
:1028C00098431377F78098C39843D98D8CC382803F
:1028D000984183870500411102C63D8B63D90706E5
:1028E00093172700AA97DC4B8546B396E60036C6B9
:1028F00094435045139506016344050494433705FA
:1029000034FC13050580E98E94C329EF144603A80F
:10291000070013F56600B77600089386064BAA9663
:1029200083C60600B3E6060194C383C61500884338
:102930005A07CA06558F498FB7860010558F98C31E
:1029400032475C4E0145D98F5CCE410182809307AE
:1029500087008A07AA97130607018546DC47B396C6
:10296000C60071B7884383D64500C98E75BF9C41A8
:1029700003870500BD8B6355070205473317F70032
:102980008A07AA97D04B1C42E176FD16F58F1CC230
:102990005C451347F7FF0145D44F758FD8CF828030
:1029A00093860701A1078A070547AA973317D7001F
:1029B000D047D1BF90410111B70600E03D8A93177F
:1029C0002600AA97D84B06CE1C433EC41C4B3EC6DD
:1029D000B247F58F3EC6DC45A5E7B247B70608000B
:1029E000D58F3EC6B2471CCB8346450085476394CE
:1029F000F6009C4D5CCB03C815008547631CF800AE
:102A00005C459C4793F70710B5CFA247B706002057
:102A1000D58F3EC4A247B7060084D58F3EC4A247D7
:102A2000D4451CC385476303F80699C658453396B9
:102A3000C700545B558E50DBF24001450561828032
:102A400083D645001DE663F3F600B687DCC5B247C2
:102A5000B7060800D58F3EC6B247D445D58F83C68A
:102A600015003EC68547E39FF6F6B247B7060060FD
:102A700085BFFD17B697B3D7D7023248CE07B3E765
:102A80000701D1BFA247B706001059B78C45C2064F
:102A9000C182210597000000E78000C171BF984105
:102AA000D4453D8B930787008A07AA9783A8C70060
:102AB000B70700E003A6080003A808013378F80070
:102AC00083D7450091C239E33368F800B70708009F
:102AD000B3E7070123A8F8000347450085476315BE
:102AE000F7009C4D23AAF80003C71500854763181B
:102AF000F70083C735009DC7B70700205D8EB70775
:102B000000845D8E23A0C800014582801387F6FFF4
:102B10003E973357F7029316370133E80601B307A0
:102B2000F7027DB7B7070010D1BF9C4103870500AE
:102B3000BD8B635407028A07AA97DC4B98436357FF
:102B400007009843B7060040558F98C39843B706CF
:102B500020000145558F98C38280A1078A07AA9754
:102B6000DC47EDB79C4103870500BD8B635A070224
:102B70008A07AA97DC4B9843B706E0FFFD16758FCE
:102B800098C303C71500854679171377F70F63E7D6
:102B9000E6009843B7060010558F98C30145828020
:102BA000A1078A07AA97DC47F9B75C45884FDC4F35
:102BB0007D8D41811375F5038280A1058A05AA9553
:102BC000DC4598475C45C84B798D82805C45884FD1
:102BD000DC4F7D8D1375F50382805845144B5C5B8B
:102BE000139725003A955849B3D7B7009E07084771
:102BF00093F7F70FD58F7D8D82805C55370708607E
:102C0000610798CB834645000547639AE6001305A4
:102C10004542C8CB9843B7860080558F98C38280C1
:102C20008347750091CB5C459C47858B91C70327F3
:102C3000050C1C43F19B1CC382801C45D84B058BA3
:102C4000631C0712411126C2C44B9C4F06C622C406
:102C50004AC0FD8C638C04109397C4002A8463D609
:102C6000070097000000E78080119397D40063D796
:102C70000700228597000000E78040208567938742
:102C8000078033F7F40019C318445CCB63DC0400FD
:102C90008347740C3707008093F7F70F2303F40C76
:102CA0001C44D8CB93F7240081C71C440947D8CBD8
:102CB00093F78400B1C7832704439C4F99C32285AF
:102CC0008297371900201309C9828347090093F7B7
:102CD000F70F85C7834709000947850793F7F70F63
:102CE0002300F900834709006379F70022859710D4
:102CF0000000E780601D230009001C442147D8CB59
:102D000093F7040191C7228597000000E780C02255
:102D10009397340163D70700228597000000E7806E
:102D2000002E9397240163D70700228597000000A7
:102D3000E780003A9397B40063DC070083270443DD
:102D4000DC4F99C3228582971C4437071000D8CBEB
:102D50009397A40063DC0700832704439C5399C323
:102D6000228582971C4437072000D8CBB2402244EA
:102D700092440249410182808280397122DC26DA44
:102D80004AD84ED652D456D25AD05ECE62CC06DE47
:102D900066CA2A84370A080097000000E78020E10D
:102DA0002A898144B71A0020214B8549994B614CEF
:102DB0007D1A63100902F2506254D2544259B2593A
:102DC000225A925A025BF24B624CD24C0545216169
:102DD000828093771900C9CF93FCF40FE685228592
:102DE00097000000E780A0DD2AC4A247858BA1CF11
:102DF00093972400A297D857232437018346440091
:102E0000639F3601184B3AC633878403B246B3F644
:102E10004601BA9703D70727158F23AEE726E68525
:102E2000228597100000E780601383474400639C6D
:102E3000370191E88347C442639777012285970061
:102E40000000E780C0DBA247A18B9DC395E0938C77
:102E5000CA8283C70C0093F7F70F99CB228597108E
:102E60000000E78060065C5423800C0023A4670107
:102E700013591900850435BF797122D426D24AD05E
:102E80004ECE52CC56CA06D65AC82A8497000000A5
:102E9000E78000D42A898144130A00088549954AAD
:102EA000631D0900B250225492540259F249624AF9
:102EB000D24A424B05454561828093771900BDC7D0
:102EC00013FBF40FDA85228597000000E78020D1FC
:102ED0002AC6B247858B9DCB93972400A297DC4BE3
:102EE000DA85228523A4370197100000E78060155A
:102EF00083474400639C370191E88347C44263974A
:102F00005701228597000000E78060CFB24793F712
:102F1000070889CFA685228597000000E780C02199
:102F200093972400A297DC4B23A44701135919005F
:102F30008504BDB71C45011102C6984F22CC26CA94
:102F40004AC83D9B06CE98CF9C5389462A893EC6E7
:102F50003244B2443247B24791803D88C583BD8B2D
:102F600093F4F47F6382D70299466387D7040327DB
:102F70008900F24062441C4FD244424993E7070162
:102F80001CCF054505618280FDD0F1473304F40272
:102F900026862A9483254427210597F0FFFFE780A2
:102FA000407483274427A697232AF4268327C4271F
:102FB000BE94232E942665BFF1473304F4023D836B
:102FC0000D8B2A948347C426BD8BD98FCDF3A1479F
:102FD000E39FF4F8930545422146210597F0FFFF52
:102FE000E78020708327C4270547A107232EF426F6
:102FF000B71700202386E7829DBF5845411122C4A0
:103000005C4306C626C2F99B4AC02A845CC381453C
:10301000210597F0FFFFE780E06F03463400930738
:10302000440101479306F00F636BC7085C447D576A
:10303000854498CF41670507D8CF2547D8CB84CBA7
:1030400098432285130900041377F78098C3A302DD
:10305000040C97000000E78080BA1C4405677146A5
:10306000D8CB9307C4263E85814597400000E78072
:103070008027AA8523182427228597000000E7804F
:1030800060859307840C714681453E85974000001A
:10309000E7806025130700F82316240D2304E40CB1
:1030A000AA85228597000000E780C082B2402303F2
:1030B000940C2244924402490545410182808C438C
:1030C0000507910794C5CC4B94C5B9BF5C45717693
:1030D0001306F63F9847D443058393F6F6EFD4C31F
:1030E000D44393E60610D4C31C45D447F18ED4C70D
:1030F00093763700377700081307474B3697034717
:1031000007008D46631ED700A300E500D8478966F7
:1031100093860640558FD8C70967D8CB054582806E
:103120000947A300E500D847856693860640558F7A
:10313000D8C7DDB7F147B387F50279714ECE06D611
:1031400022D426D24AD052CC56CA5AC8AA9703A72C
:10315000470D83A6870D83D7C70C5EC662C4158F43
:10316000AA896373F700BA87714433848502854A5C
:103170008D07B39ABA00139B2500C16B13DA2700A1
:1031800093CAFAFF4E9BFD1B4E9413F9F50F138C57
:10319000890083274B01984F337777016378EA00E2
:1031A0000327840D8327440D636FF700B250225428
:1031B00092540259F249624AD24A424BB24B224CD3
:1031C0000545456182808354C40C998F63F3970051
:1031D000BE848325040D9396040193873400C18235
:1031E0004A86628513DA270097F0FFFFE780C04B1D
:1031F0008327840D0327040D2697BE948327440D4F
:103200002328E40C232C940CE395F4F883A7C9003D
:10321000D85B33775701D8DBADBF4111014506C6F6
:1032200097200000E78020833777DC02B717002063
:10323000130707C0938707836317E502370740002A
:1032400098C38D4637170020232ED75688439710F2
:103250000000E780A06BB2401305C0504101171376
:1032600000006700036037A74A04130707206318AC
:10327000E50023A00700371700209546F1B737E790
:10328000B80513070780E313E5FC3707C00098C3B0
:103290009D46371700204DBF411101468545130556
:1032A000600506C697100000E78020411305C07135
:1032B00097100000E780E05A3705040097100000DF
:1032C000E780E04D01468145370504009710000076
:1032D000E780E0413705040097100000E780204BAD
:1032E000B24001468D451305D0034101171300007C
:1032F0006700A33C828017F3FFFF670043EF17F3DB
:10330000FFFF6700A3E737050020130585141703A7
:1033100000006700C392411122C43704002006C692
:103320009307841483C777008DCB97000000E78054
:103330008024B717002003A5078397100000E780BB
:10334000E05C1305C05097100000E7808051130522
:10335000841497000000E780E08C2244B2403705D7
:10336000040041011713000067006343011122CCE0
:10337000370400209307C45706CE26CA4AC84EC653
:1033800052C456C25AC023A20720B7070020138791
:1033900087140347670C8D461304C457639FE602E6
:1033A00037190020BE84AA89371A0020054BB71AA6
:1033B0000020130989A683474A81638D6703832709
:1033C000442013871700A297238007002322E420BC
:1033D00081470327442063E8E70603254420F240A1
:1033E0006244D2444249B249224A924A024B7D1574
:1033F0000561828003A60A821DC28326442081477C
:10340000B305F90083C505003387F6002297230032
:10341000B7008507E396C7FEB6972322F4209306EC
:1034200000044A868D4513858414230A0A8023A04C
:103430000A8297000000E7802030054597000000D1
:10344000E78020EC8DBF3307F40083460700338705
:10345000F90085072300D700ADBF411106C69700CC
:103460000000E780401197100000E7802024094504
:1034700097100000E780E02397000000E78020DA43
:1034800097000000E78040E797000000E78000E138
:10349000B240370600203705002013064612854546
:1034A000130585144101170300006700633DB7074A
:1034B00000209387871403C5670C75151335150015
:1034C000828001114AC84EC606CE22CC26CA52C4FA
:1034D00056C2AE89328997200000E780A0C79307C3
:1034E000002063F4270113090020E1649384046A37
:1034F000AA94371A002033B5A400D28A3304B50049
:1035000083475A8199EB97200000E780A0C4E3E944
:1035100085FE6314B400E36595FE37160020A38A88
:103520000A800144930786AA631B240393160401AF
:1035300037050020C182130686AA930510081305DB
:10354000851497000000E78020232285F240624422
:10355000D2444249B249224A924A05618280338765
:103560008900834607003387870005042300D700BE
:1035700065BFB71702409843B706FFE0B10613676F
:10358000170098C3D843758FD8C39843B706F7FE82
:10359000FD16758F98C39843B706FCFFFD16758F0F
:1035A00098C3D843B70601DFFD16758FD8C323A68D
:1035B00007029843B706F7EAFD16758F98C33707D9
:1035C000FF0098C794434167D98E94C39307F7FFD0
:1035D0003717024014431396E60063440600FD17B4
:1035E000F5FBB717024098439316E70063C3060044
:1035F00001A0D843B706C4DFFD16D8C3D843D8C34B
:10360000D84313670740D8C3D843758FD8C3D8436E
:10361000B7061D20558FD8C3D857BD76758FD8D71C
:10362000D857B706000113671700D8D79843558FAE
:1036300098C3B7170240984393166700E3DD06FE70
:10364000D843719BD8C3D84313672700D8C3371713
:1036500002405C43A18BF5DF1723000067006396EF
:10366000411106C603C7550083C7450003C62500A0
:1036700022075D8F93178601E18763D20706F14722
:103680009376F607B386F6029387860CAA9603C84C
:10369000860CAA97136808F82384060D83C60700D2
:1036A0003D8A1377F70FC19A558E2380C700239266
:1036B000E70003C73500BE850D8B9316270037073B
:1036C00000081307473F36971843A380E70097F099
:1036D000FFFFE7802020B240014541018280F14692
:1036E000B306D6029387C626AA9603C8C626AA970B
:1036F0001378F8072386062755B74111939785015C
:1037000006C6E18763D2070293F5F507F147B38553
:10371000F5029385850CAA9597F0FFFFE780602559
:10372000B240014541018280F147B385F50293859E
:10373000C526D5B793F7F507F145B387B702411111
:1037400006C605479385C726AA9723AAC72623AC92
:10375000D72623AE072683464500AA956394E60044
:1037600023A2C72897F0FFFFE780A033B2400145AE
:103770004101828093F7F507F145B387B702411104
:1037800006C605479385870CAA9723A8C70C23AACA
:10379000D70C23AC070C83464500AA956394E6003A
:1037A00023A0C70E97F0FFFFE7800021B24001453C
:1037B0004101828041119397850106C6E18763D557
:1037C000070293F5F507F147B385F5029385850C5C
:1037D000AA9585472381F50097F0FFFFE780203504
:1037E000B240014541018280F147B385F5029385DE
:1037F000C526F9BF41119397850106C6E18763D4B9
:10380000070293F5F507F147B385F5029385850C1B
:10381000AA952381050097F0FFFFE780E034B240CE
:10382000014541018280F147B385F5029385C526A4
:10383000C5B717F3FFFF6700A308F147B385F5028B
:10384000AA9503D5C5278280411106C697F0FFFFD0
:10385000E7806006B2400D45410117030000670094
:1038600043AA411106C697F0FFFFE7800004B2406B
:103870000D454101170300006700A3A8411106C6CA
:1038800022C426C2930485002328C5422E86A6851D
:103890002A8497F0FFFFE78000C64C400840268648
:1038A00097F0FFFFE780A0D3228597000000E78014
:1038B00080FB228597F0FFFFE78040EE228597008E
:1038C0000000E780A0F885472303F40CB2402244AF
:1038D000924441018280054582800325454183470A
:1038E00005002310F60082800325854183472500CB
:1038F0002310F6008280832705428A05AE9788430D
:10390000834705002310F6008280411122C426C29D
:1039100006C683C705002A84AE848D8B8DCF0547EC
:103920006385E70C0327C40D054561C783C7740091
:1039300083C66400A207D58FCDCF6371F70C835780
:10394000C40C01456367F70A3375F70255E98547EB
:10395000A306F44279A883C7250083C5350009472B
:10396000A205DD8D93D7850093F5F50F638CE704F1
:10397000636BF7020547E397E7FA1306C50D970057
:103980000000E780C0F52328A40C83C7740003C798
:103990006400A207D98F13070004E395E7F8A14755
:1039A000232EF40C41B70D476387E7023D47E39BA5
:1039B000E7F68327C54103C727002328F50C231EFC
:1039C000E50C8DB71306C50D97000000E78000F2E7
:1039D0002328A40C81BF9547E3E6B7F41306C50D71
:1039E00097000000E78060F1E5B783270543DC47D7
:1039F0008297B2402244924441018280232EF40CEB
:103A00000145C5BF41114AC006C622C426C283C7AC
:103A1000250037190020130949832300F900854642
:103A200063EDF6000347650C89442A841377F70F8A
:103A3000630797000D466309C702854439A881448E
:103A400089CF832705438545DC4382978347090057
:103A50002302F40C8D472303F40CB2402244268544
:103A6000024992444101828091EF832705438145B9
:103A70009C478297834709002303940C81442302C7
:103A8000F40CE1BF8347450C8144E388D7FC8327CE
:103A9000054385459C478297834509008327044356
:103AA00022852302B40CDC43829745BF83C65500B0
:103AB00003C7450003C60500A206D98E0D8A8545B9
:103AC000AA8713F7F60F6303B60411C6894563028C
:103AD000B606054582800347650C89466388E60083
:103AE0000347650C8D4605456394E60483C627416C
:103AF00003C7074189C6B336E00093E626003717AF
:103B00000020130787832300D70029A88346650C6C
:103B10000D460545631ED600636CE500371700208F
:103B20001307878323A8E70C094723AEE70C014559
:103B300082800346650C8D450545E39BC5FEE20684
:103B4000E18663DB0600F1461377F7073307D702F8
:103B50003E978346A70C65B7F1463307D7023E97D9
:103B60008346E72669BF0347650C8946AA87137712
:103B7000F70F6307D7008D466301D70205458280A2
:103B80000347450C054565FF1387470C23A8E70C41
:103B9000054723AEE70C014582800347450C79DFDA
:103BA000E5B78347650C0D476311F70203C745006E
:103BB000854763EAE70003270543232EF50C814779
:103BC00005072328E50C3E8582808547EDBF8347A6
:103BD000650C0D476310F70203C74500854763E98D
:103BE000E7008327054303C72500A380E70081473B
:103BF0003E8582808547EDBF03C7550083C64500DB
:103C00002207558F01CB054582800545B2402244ED
:103C10004101828003C7750083C665002207558F66
:103C20007DF3411122C406C683C525000347650CF8
:103C30008D4693F5F507A302B50C2A84E387E6FCCD
:103C400097000000E78020BF8347540C91C7894745
:103C50002303F40C01455DBF8547DDBF411106C656
:103C600022C483C705002A878D8B8DCF89460544E2
:103C70006391D7068347650C0D470544631BF70422
:103C800083C7350003C725000144A207D98FB1E3DC
:103C900083C5450093F7F5078DCF97000000E780B7
:103CA000A0B105A88347650C89466388F600834761
:103CB000650C8D460544639EF60083C7350083C6B8
:103CC00025000144A207D58F85466394D7002309B8
:103CD000F7402285B240224441018280411126C230
:103CE00006C622C44AC003C70500AA840D8B29C793
:103CF000894605496319D7060347650C8D46054972
:103D00006393E60603C7350083C6250001492207F1
:103D1000558F31EB03C745009376F707A9C62E846C
:103D2000BA8597000000E78020AD83A70443A285F1
:103D30002685DC47829705A80347650C894663887A
:103D4000E6000347650C8D460549639EE60003C700
:103D5000350083C6250005492207558F63152701C5
:103D6000238904400149B24022444A8592440249D1
:103D700041018280014582800145828083C7150010
:103D800013972700B707000893874740BA9703A304
:103D9000070002838346650C0D4685476310D602F3
:103DA00083C64500854763EBD70083270543411150
:103DB00006C6DC478297B240410182803E85828000
:103DC0000145828041119305000806C622C42A8459
:103DD00097000000E780409E228581459700000003
:103DE000E780809D22852244B240410117F3FFFF06
:103DF0006700E3E08356C50D0326050D411181459B
:103E000022C406C62A8497000000E780E096035784
:103E1000C40C8326C40D89476373D70085472306E6
:103E2000F442B24022440145410182808356052874
:103E3000032645274111814522C406C62A849700DE
:103E40000000E780608F03570427832604289147EA
:103E50006373D7008D472306F442B24022440145E4
:103E600041018280411106C622C495472306F542CE
:103E70008146014681452A8497000000E780C08F73
:103E8000228597F0FFFFE78080D7B24022440145AA
:103E900041018280411106C622C499472306F5429A
:103EA0008146014681452A8497000000E780C0884A
:103EB000228597F0FFFFE78080D4B240224401457D
:103EC000410182808327454203278542011122CC8C
:103ED0003EC43AC606CE93F70706130700022A84AB
:103EE000638AE70213070004638CE702B9EF2C0032
:103EF00097000000E780C0E829E98357E1009DE7CB
:103F0000228597000000E78020F6F24062440145D8
:103F1000056182802C0097000000E780E0E7E9BFA0
:103F20002C0097000000E780E0E9F9B783078100E3
:103F3000228563D7070097000000E780E0EBF1B728
:103F400097000000E780C0EEC9B72C0022859700DB
:103F50000000E78060E755BF797106D622D40018CB
:103F6000232EA4FCAE87A30DF4FC8347B4FDC1EB64
:103F70008327C4FD9387C7262326F4FE8327C4FD29
:103F800083C7C7420D476386E70011476386E70290
:103F90004DA08327C4FEDC4B0327C4FE0357470014
:103FA0003387E7408327C4FED8CB0325C4FD9700A1
:103FB0000000E780E0E7B5A88327C4FD83C7670C4E
:103FC00013F7F70F8D476311F7028327C4FD83A70B
:103FD0000743DC4B91CB8327C4FD83A70743DC4B0E
:103FE00081450325C4FD82978327C4FE23AA0700C9
:103FF0000325C4FD97000000E78000E71DA8832784
:10400000C4FD83A70743DC4B8DC78327C4FD83C74B
:10401000670C13F7F70F8D47631DF7008327C4FD67
:1040200083A70743D84B8347B4FDBE850325C4FD52
:10403000029781473E85B250225445618280797152
:1040400006D622D40018232EA4FCAE87A30DF4FCC0
:104050008347B4FDDDEB8327C4FD9387870C2326BC
:10406000F4FE8327C4FD83C7C74205476386E70084
:1040700009476386E702E1A08327C4FEDC4B0327E0
:10408000C4FE035747003387E7408327C4FED8CBDD
:104090000325C4FD97000000E78000D64DA08327CC
:1040A000C4FD83C7D74299CF814601468145032588
:1040B000C4FD97F0FFFFE780206C8327C4FDA38633
:1040C0000742B5A88327C4FD83C7670C13F7F70F12
:1040D0008D476311F7028327C4FD83A707439C4BD9
:1040E00091CB8327C4FD83A707439C4B81450325C0
:1040F000C4FD82978327C4FE23AA07000325C4FDBD
:1041000097000000E78040D91DA88327C4FD83C71E
:10411000670C13F7F70F8D476313F7028327C4FD6E
:1041200083A707439C4B81CF8327C4FD83A7074305
:10413000984B8347B4FDBE850325C4FD0297814794
:104140003E85B2502254456182800000000000008C
:10415000000000000000000000000000000000005F
:10416000000000000000000000000000000000004F
:10417000000000000000000000000000000000003F
:1041800073110134197102C006C20EC612C816CAD4
:104190001ACC1ECE22D026D22AD42ED632D836DA47
:1041A0003ADC3EDEC2C0C6C2CAC4CEC6D2C8D6CA77
:1041B000DACCDECEE2D0E6D2EAD4EED6F2D8F6DA27
:1041C000FADCFEDEF32F00347EC473252034930521
:1041D000010097E0FFFFE78040DD032001009240EF
:1041E000B2414242D2426243F243025492542255B7
:1041F000B2554256D2566257F2570648964826495B
:10420000B649464AD64A664BF64B065C965C265D36
:10421000B65D465ED65E665FF65F09617311013476
:1042200073002030197102C006C20EC612C816CA29
:104230001ACC1ECE22D026D22AD42ED632D836DAA6
:104240003ADC3EDEC2C0C6C2CAC4CEC6D2C8D6CAD6
:10425000DACCDECEE2D0E6D2EAD4EED6F2D8F6DA86
:10426000FADCFEDE7311013473251034F32550306F
:104270009706000093864602170600001306860480
:10428000137686FD1366360073105630739016341D
:1042900073002030010001000100010001007300E3
:1042A00000001300000013000000130000001300C2
:1042B00000001300000013000000130000000100C4
:1042C00073101534739055307311013403200100BD
:1042D0009240B2414242D2426243F243025492546B
:1042E0002255B2554256D2566257F2570648964862
:1042F0002649B649464AD64A664BF64B065C965C5A
:10430000265DB65D465ED65E665FF65F09618280B9
:10431000000000000000000000000000000000009D
:1043200000004111B727014006C693870740630B81
:10433000F500B7370140938707806303F502B24069
:10434000410182801305903097000000E780E05221
:1043500013059030B240410117030000670063531A
:104360001305A03097000000E78020511305A0300E
:10437000D5B7B727014003A74740B706F1FFFD16A1
:10438000758F23A2E74003A74740598D23A2A7407A
:10439000828093F7051013F7054089890DC289C7FC
:1043A0005C4193E707105CC109C75C4193E7074094
:1043B0005CC189C51C4593E727001CC5828089C75D
:1043C0005C4193F7F7EF5CC109C75C4193F7F7BF16
:1043D0005CC1EDD51C45F59BCDB71C4599C505675E
:1043E00013070780D98F1CC582807D771307F77F5D
:1043F000F98FD5BF1C45858B89E71C4593E71700CE
:104400001CC582801C451307850093E787001CC5E7
:104410001C43A18BF5FF1C4593E747001CC51C43BB
:10442000918BF5FF82803727014083278740B706AD
:104430008000D58F2324F740828085476386F5006E
:1044400089476382F50282805C55370710FF7D172C
:10445000F98F5CD55C557D1652063707F000798ED2
:104460005D8E50D582801C5D3707D0FF7D17F98F98
:104470001CDD1C5D7D16520637073000798E5D8E7F
:1044800010DD828015476363B704B385E502032816
:104490004503FD47B397B70093C7F7FFB3F707018D
:1044A000B315B600DD8D4CD9A54763E9C7068D4726
:1044B0003306F6020C491D473317C7001347F7FFB1
:1044C0006D8F3396C600598E10C98280AD4763E365
:1044D000B702E915B385E50203280503FD47B39745
:1044E000B70093C7F7FFB3F70701B315B600DD8D2B
:1044F0000CD95DBFBD47E3E9B7FAD115B385E50235
:104500000328C502FD47B397B70093C7F7FFB3F77A
:104510000701B315B600DD8D4CD579B7C54763E10A
:10452000C7028D4759163306F60258459D47B39783
:10453000C70093C7F7FFF98F3396C600D18F5CC5CC
:1045400082801C5D7D4703288503D1838D8BB385D5
:10455000B740ED57B385F502A547BD053317B70042
:104560001347F7FF33770701B315B600D98D0CDD7C
:1045700063E1C7020D473306E6021C491D473317A6
:10458000C7001347F7FF7D8F3396C600598E10C9B9
:104590008280C54763E1C7028D4759163306F6028C
:1045A00058459D47B397C70093C7F7FFF98F3396D8
:1045B000C600D18F5CC5828085476386F500894738
:1045C000638DF50082801445B705F2FFFD15ED8E71
:1045D00014C51845518F18C582801845E576FD161B
:1045E000758F18C51C45D18F1CC5828093F71500A7
:1045F000898909CE91C71C4537071000D98F1CC582
:1046000089C51C452167D98F1CC5828099C71C4567
:104610003707F0FF7D17F98F1CC5E5D91C45617779
:104620007D17F98FD5B793F7150091C71C4537074C
:104630004000D98F1CC5898991C51C4537072000CA
:10464000D98F1CC58280684542054181828085479B
:10465000638FF50099C98947638DF5008D47638C99
:10466000F5000145420541818280485DE5BF284152
:10467000D5BF6841C5BF2845F5B708416D8D3335B5
:10468000A00082801C4193C5F5FFFD8D0CC1828086
:10469000411106C697000000E7806021B240410149
:1046A0001703000067008321F3670430828017132B
:1046B0000000670063AF011106CE22CC32C42A8409
:1046C0002EC697100000E78000ACB24522859710F7
:1046D0000000E780C0AF224622856244F240B285E6
:1046E000056117130000670003B4B707014083A6F4
:1046F00007401347F5FFF98E23A0D74083A6474014
:10470000F98E23A2D74083A68740F98E23A4D740F1
:1047100083A6C740F98E23A6D74081CD8546638006
:10472000D50285476300F6040DC289476309F60484
:10473000828083A60740C98E23A0D740DDB783A619
:104740004740C98E23A2D740E9BFB707014083A6DF
:104750008740558D23A4A74083A6C740758F23A605
:10476000E7408280B707014083A68740758F23A466
:10477000E74003A7C740598D23A6A7408280B7070B
:10478000014003A78740498FDDB7370701408327E2
:1047900007405D8D2320A7408280B707014023AAF0
:1047A000A740828093F7050193F8F50099C3B3E819
:1047B000C8008147054EBD4E130F8002930F800441
:1047C00021433316FE00758E1DC2139727008322E6
:1047D00005003398EE001348F8FF337858003397FC
:1047E000E800336707016399E50550C918C18507DB
:1047F000E39967FC054EBD4E130F8002930F8004B2
:1048000041433316FE00758E05C613972700011726
:10481000832245003398EE001348F8FF33785800A0
:104820003397E80033670701639CE50150C958C11D
:104830008507E39867FC8280E39AF5FB10C97DB792
:10484000E397F5FF10C9E5B70CC982804CC9828097
:10485000377700401C4393E707101CC38280B717CB
:104860000240135765003E9714438547B397A7004E
:10487000D58F1CC38280B7170240135765003E973F
:1048800014438547B397A700D58F1CC38280B71701
:104890000240135765003E9714438547B397A7001E
:1048A00093C7F7FFF58F1CC38280371702401C5354
:1048B000C166D58F1CD38280B71602409C524177C7
:1048C0007D17F98F9CD28280B7170240DC433747AF
:1048D000FFEF7D17F98F1547630EE5006369A700A9
:1048E0000D476370A702371702405CC382801D47E3
:1048F000E31BE5FE3A053177798D5D8DB707001032
:1049000011A03A05C98FC5B7B7160240DC42370778
:1049100040FF7D17F98F5D8DC8C282803717024036
:104920001C5393F7F7CF5D8D08D382801357650032
:10493000B71702403E971C4333D5A70005898280F4
:10494000411106C622C426C2E9476307F50E63EF8C
:10495000A700C1476304F504E1476302F50C59C1A0
:104960000145B24022449244410182809307058070
:10497000A1CB8567138707906302E508F147E31130
:10498000F5FE370410007D14754597000000E780A0
:1049900020FA19E17D146DF8754521A841647D1454
:1049A000454597000000E780A0F819E17D146DF8F7
:1049B000454597000000E780A0F73335A00055B7C4
:1049C0003704000485647D14938414802685970041
:1049D0000000E780E0F519E17D146DF80565130529
:1049E0001580C1BF13040050054597000000E78003
:1049F00020F419E17D146DF8054565BF37041000FA
:104A00007D1493841790268597000000E78040F27C
:104A100019E17D146DF805651305159059BF37042C
:104A200010007D14654597000000E78060F019E1F3
:104A30007D146DF86545B5BF370410007D146D45D4
:104A400097000000E780C0EE19E17D146DF86D4518
:104A50008DB77971B705000822D441462A84938521
:104A60008543080806D697300000E7806086B707C0
:104A700003049387172002C03EC202C43EC6371704
:104A800002405C43894689838D8B6397D70E5C43D4
:104A90009396F70063D606065C579396F70063DC9F
:104AA00006045C57585791832183BD8B3D8B9386B9
:104AB00017000907C5476313F7005147B7177A0076
:104AC00093870720B3D7D702B387E702371702408F
:104AD00058573D8B050733D7E702B7160240DC4233
:104AE000D442C98313962600BD8B6350060293E718
:104AF000070185070DA0B7177A0093870720F9B73C
:104B0000B7173D0013870790C9BFBD46E383D7FEA3
:104B10008907638DD704B387E702B7160240D842EE
:104B2000101011833D8B3297034507FFD84233D5D0
:104B3000A70021831D8B3297034607FED84214102D
:104B40002D831D8B36978546034787FE630CD40063
:104B500005CC89476307F4028D473355E5006303AD
:104B6000F4000145B2502254456182809947B30751
:104B7000F7020583BA9755B7B7177A0093870720CE
:104B800069BF3355C500F9BF3E85E9BF37370040DF
:104B90008327478093E707012322F78082803737F6
:104BA000004083274780BD9B2322F780828001112C
:104BB00006CE2AC697000000E78080FD3245B73751
:104BC0000040F24013570501420523ACE7804181C4
:104BD00023AEA780056117030000670083FC011165
:104BE00006CE2AC697000000E78080FA32453737A4
:104BF0000040F24093570501BD8B42052324F78006
:104C000041812326A780056117030000670063F92F
:104C1000373700408327478093F70702E5DF82801C
:104C20003737004083274780DD9B2322F780832787
:104C30004780A18BEDDF8280B737004003A5C78195
:104C400083A78781C2075D8D8280B737004003A7A5
:104C500047801345F5FF798D23A2A780828023200A
:104C60000500232205002324050023260500232A0E
:104C70000500232C050082801C410D6713070704E3
:104C8000D4417D8F9C41D58F9445D58FD445D58F08
:104C90009449D58FD449D58F944DD58FD98F1CC1C8
:104CA0005C4D7D771307F77FF98F5CCD82801C41C7
:104CB00093E707041CC182804CC582801C410967B0
:104CC000D98F1CC10CC9828008456D8D3335A00079
:104CD00082804111B757004006C6138707C0630999
:104CE000E506636FA7003747004013070740630FCF
:104CF000E502938707806304F504B2404101828096
:104D00006301F506B747014093870780E317F5FE77
:104D10001305E03097000000E78020B61305E0306F
:104D2000B2404101170300006700A3B6130510410C
:104D300097000000E78060B413051041D5B7130554
:104D4000204197000000E78040B313052041C9BF10
:104D50001305304197000000E78020B21305304171
:104D6000C1B71305404197000000E78000B113056B
:104D700040417DB74111B757004022C426C206C644
:104D8000138707C02A84AE84630FE500636FA70012
:104D900037470040130707406307E5009387078004
:104DA00001456312F402094519A8E30EF5FEB74761
:104DB00001409387078001456317F4000D45970074
:104DC0000000E78040C993D71400AA97B3D7970291
:104DD000B2409244C207C1831CC422444101828074
:104DE0005C4593F7F79F5CC55C45DD8D4CC58280C3
:104DF0005C457D777D17F98F5CC55C45DD8D4CC5C5
:104E000082801C4975777D17F98F1CC91C49DD8D7F
:104E10000CC982805C450967D98F5CC582805C457E
:104E2000DD9BDD8D4CC582805C45ED9BDD8D4CC5E9
:104E3000828093F5F51F4CC1828048411375F51FA0
:104E400082805C4993F7F7EFDD8D4CC982805C4925
:104E500093F7F7DFDD8D4CC9828093D7650093F718
:104E6000F73F3E9508413355B5000589828093D7B9
:104E7000650093F7F73F3E9518418547B397B70014
:104E8000D98F1CC1828013D765001377F73F3A95FD
:104E900018418547B397B70093C7F7FFF98F1CC137
:104EA0008280B71702409843B706FFE0B106136748
:104EB000170098C3D843758FD8C39843B706F7FE39
:104EC000FD16758F98C39843B706FCFFFD16758FC6
:104ED00098C3D843B70601DFFD16758FD8C323A644
:104EE00007029843B706F7EAFD16758F98C3370790
:104EF000FF0098C794434167D98E94C39307F7FF87
:104F00003717024014431396E60063440600FD176A
:104F1000F5FBB717024098439316E70063C30600FA
:104F200001A0D843B706C4DFFD16D8C3D843D8C301
:104F3000D84313670740D8C3D843758FD8C3D84325
:104F4000B7062920558FD8C3D857BD76758FD8D7C7
:104F5000D857C166938616F1558FD8D79843B706B0
:104F60000004558F98C3B717024098439316470023
:104F7000E3DD06FE9843B7060010558F98C3B717B8
:104F80000240984393162700E3DD06FE9843B706D8
:104F90000001558F98C3B7170240984393166700D6
:104FA000E3DD06FED843719BD8C3D84313672700BF
:104FB000D8C3371702405C43A18BF5DF82803717D7
:104FC00002405C4337160020854689838D8B13068B
:104FD00086816386D70081C789466388D700B71763
:104FE0007A00938707201CC282805C439396F70067
:104FF00063DB06065C579396F70063D106065C57A1
:1050000058579183BD8B2183938617009377F700C0
:1050100013872700C5476313F7005147B7177A0076
:1050200093870720B3D7D702B387E7023717024029
:1050300058573D8B0507B3D7E702B7160240D84251
:10504000D4424983939526003D8B63D305021367B1
:10505000070105073307F70218C28280B7177A00E5
:1050600093870720E1B7B7173D0093870790F1B703
:10507000BD46E300D7FE0907E31ED7FC1947338777
:10508000E7028583BA9785B77971B705000822D4FE
:105090007D462A849385C5440A8506D6972000005C
:1050A000E780002379468A85094597200000E7803C
:1050B000A025A285094597000000E780E001B7051B
:1050C0000008054693858544094597200000E78040
:1050D000A02301A079714ECEAE89B705000809461C
:1050E0009385C54622D426D24AD052CC56CA06D67B
:1050F0002A89714497200000E78000213D4AA54A93
:10510000F154B3178A00B3F73701B3D7870093F789
:10511000F70F63ECFA029387070393F7F70F05463F
:105120009305F1004A857114A307F1009720000050
:10513000E780801DE31794FCB25022549254025928
:10514000F249624AD24A4561828093877703F1B778
:10515000B70700D1D8438843CC43E39DE5FE828066
:10516000B70700D223800700A38507001205B717F1
:1051700000D23E9563E3A700828023A00700C10709
:10518000D5BFB71700D285070A053E95854723008E
:10519000F5008280B71700D20A0585073E952300E7
:1051A00005008280370700D283470700060579890A
:1051B00093F7170E5D8D2300A7008280B70700D2FA
:1051C00003C5070005813D898280411122C426C2A2
:1051D00006C62A84AE8497000000E78060FE9147EF
:1051E000114763E3A7002A87371500D20A040D058B
:1051F0002295834705009376F70FA145B397E70003
:1052000093F7F70F958DB394B400B3D7E740C58FEC
:1052100093F7F70F2300F500B24022449244410176
:105220008280011122CC2EC606CE2A84970000006F
:10523000E78000F98D47814563E9A702371700D25F
:105240000A040D07229783470700B245A14633851C
:10525000A6409205B3D7A74093F5F50FB397A700E3
:10526000CD8F93F7F70F2300F700F24062442E85AD
:1052700005618280F327503093F707FC93E73700EE
:10528000739057308280B71700D289070A053E9580
:105290008347050093E717002300F5008280411142
:1052A00006C697000000E78000C013057005970050
:1052B0000000E78020EB97000000E780E0FB97B05C
:1052C000FFFFE78080F8B240410117C3FFFF67008E
:1052D00003588280411126C2AA841305206006C6A5
:1052E00022C497F0FFFFE780C0571305906097F046
:1052F000FFFFE78000570D4597F0FFFFE780005D57
:1053000037150140A146414681451305058097F0B8
:10531000FFFFE7806049372401401305044097F000
:10532000FFFFE7804000014597F0FFFFE780A00402
:10533000014689451305044097F0FFFFE780A0056B
:105340000146930500101305044097F0FFFFE78026
:10535000800481451305044097F0FFFFE780200893
:10536000054685451305044097F0FFFFE780200DB3
:1053700089460D4681451305044097F0FFFFE780FD
:10538000A01037060E0085451305044097F0FFFF77
:10539000E780C022054685451305044097F0FFFFCE
:1053A000E78000259DCC0546930500401305044089
:1053B00097F0FFFFE78020FE05468945130504406E
:1053C00097F0FFFFE780A00797F0FFFFE780E00579
:1053D0009D46414681451305044097F0FFFFE78055
:1053E0008016372401401305044097F0FFFFE78043
:1053F000A0001305044097F0FFFFE780E0001305CD
:1054000004402244B24092448545410117F3FFFF16
:105410006700A321B71700209387C7839843011122
:1054200022CC26CA4AC84EC606CE2A84AE89328904
:10543000B68419EF370700D248434E054D8188C323
:1054400097000000E78000D297000000E780C0E2EC
:10545000228597000000E78040E322859700000046
:10546000E78060D293F5F90F228597000000E7806E
:1054700000D69375F90F228597000000E780A0DA27
:105480009D47630DF40093078003630DF400F24021
:105490006244D2444249B24905618280B717002074
:1054A00023A09784B717002023A29784CDB7397122
:1054B0003ECCB717002083A7078406DE16DC1ADA75
:1054C0001ED82AD62ED432D236D03ACE42CA46C8B8
:1054D00072C676C47AC27EC08297F250E2525253AC
:1054E000C2533255A255125682567247E24752486D
:1054F000C248324EA24E124F824F216173002030BB
:1055000039713ECCB717002083A7478406DE16DC2E
:105510001ADA1ED82AD62ED432D236D03ACE42CA81
:1055200046C872C676C47AC27EC08297F250E252F2
:105530005253C2533255A255125682567247E24711
:105540005248C248324EA24E124F824F2161730020
:10555000203079714AD04ECE5AC806D622D426D2EF
:1055600052CC56CA5EC662C466C22A8B970000003F
:10557000E78040BEAA892E8997000000E78080BDA1
:10558000AA842E846394A900E308B9FEB717000823
:1055900003A907A683A947A6B71B00209700000010
:1055A000E78040BBAA87058DB3B7A700818D9D8D8D
:1055B00097200000E780E0A32A8A03A58B81AE8AAA
:1055C00097200000E780809D4A86CE8697100000D5
:1055D000E78060F92A8C5A85AE8C97200000E7801E
:1055E000E09B2A86AE866285E68597100000E780FC
:1055F00020562A86AE865285D68597100000E78011
:10560000E04AE34D05F8B250225492540259F2494F
:10561000624AD24A424BB24B224C924C4561828044
:10562000411122C4B7170020371400200327C48477
:1056300083A7078506C626C2630AF70837450040D8
:1056400089451305058097F0FFFFE78020682DC589
:1056500089653715014097F0FFFFE780601F13044D
:10566000C4841440B7170020138787CA8A06369768
:1056700014431307F00F938487CAA16537150140BF
:105680006351D70497F0FFFFE780401C1C4037456B
:10569000004013050580138717008A07A69783C566
:1056A000070018C097F0FFFFE78040611C40130718
:1056B0000010B3E7E7021CC0B2402244924441010B
:1056C000828097F0FFFFE780A018C9B72244B2405C
:1056D0009244896537150140410117F3FFFF6700C8
:1056E000E316411122C426C206C6B714002037149F
:1056F000002003A7C484832704856317F700B24002
:10570000224492444101828097000000E78080F1AA
:10571000CDB7011122CC26CA4AC806CE37190020BF
:105720009304001037140020130609851C428326B9
:10573000C48413871700336797026301D7029396D7
:105740002700B7170020F2406244938787CAB697B4
:1057500088C318C2D2444249056182802AC6970094
:105760000000E78020EC3245C1B7411122C42A84F1
:1057700021851305051006C697000000E780A0F9F3
:105780001375F40F2244B2401305051041011703AD
:105790000000670043F8011122CC26CA371400200C
:1057A000AA841305A00206CE36C22EC61304848432
:1057B00032C497000000E78000F6034524002695D8
:1057C00097000000E780A0FA2246034524003295A6
:1057D00097000000E780A0F91305B00297000000D1
:1057E000E78060F3B245034534002E959700000032
:1057F000E780E0F7034534009246369597000000B5
:10580000E780E0F66244F240D2441305C00205612D
:1058100017030000670023F079718965371501408F
:1058200006D622D497F0FFFFE7804002480097F0A9
:10583000FFFFE7800043930740103EC28D47374487
:1058400000403ECC930700203EC84C00A147130502
:1058500004803ECE02C402C602CA97F0FFFFE78072
:10586000E041130504809D4597F0FFFFE780404528
:105870001305048097F0FFFFE780A043B250225445
:105880004561828009E9B707011A371700208507AB
:105890002324F78482808547E31EF5FEB7070018AE
:1058A0003717002093871710E5B7B717002003C7F5
:1058B0008784411122C406C61384878411E70145F9
:1058C00097000000E78040FC1305306097F0FFFF71
:1058D000E78020F91305406097F0FFFFE78060F84C
:1058E0001305006097F0FFFFE780A0F71305E07055
:1058F00097F0FFFFE780E0F637150140B9660D46E7
:10590000E145130505C097F0FFFFE780E0E9A966D0
:105910000D46C1453715014097F0FFFFE780C0E80D
:1059200097000000E78080EFA9653715014097F0E8
:10593000FFFFE780E0F197000000E780C0DA130581
:10594000400697000000E78000C105459700000071
:10595000E78060DC97000000E780E0D8130580074F
:1059600097000000E78020BF454597000000E780D2
:1059700080DA97000000E78000D713054006970003
:105980000000E78040BD834714001305200299E31F
:105990001305100297000000E780E0D71305100BF5
:1059A00097000000E78020D71305501097000000F3
:1059B000E78060D61305A01397000000E780A0D50C
:1059C0001305A01397000000E780E0D41305200B17
:1059D00097000000E78020D41305501097000000C6
:1059E000E78060D31305A01397000000E780A0D2E2
:1059F0001305A01397000000E780E0D11305300BDA
:105A000097000000E78020D1130550109700000098
:105A1000E78060D01305A01397000000E780A0CFB7
:105A20001305A01397000000E780E0CE1305501087
:105A300097000000E78020CE1305A0139700000018
:105A4000E78060CD1305A01397000000E780A0CC8D
:105A50001305400B97000000E780E0CB13053010E2
:105A600097000000E78020CB1305000C9700000092
:105A7000E78060CA1305201697000000E780A0C9E0
:105A80001305201097000000E780E0C813054010C0
:105A900097000000E78020C81305100C9700000055
:105AA000E78060C71305001C97000000E780A0C6D0
:105AB0001305200C97000000E780E0C51305D01007
:105AC00097000000E78020C5130500109700000034
:105AD000E78060C41305300C97000000E780A0C386
:105AE0001305D01897000000E780E0C21305A01648
:105AF00097000000E78020C21305400C97000000CB
