:020000040800F2
:10000000B1AA010000000000000000000000000094
:1000100000000000000000000000000000000000E0
:1000200000000000000000000000000000000000D0
:1000300000000000000000000000000000000000C0
:1000400000000000000000000000000000000000B0
:1000500000000000000000000000000000000000A0
:100060000000000000000000000000000000000090
:100070000000000000000000000000000000000080
:100080000000000000000000000000000000000070
:100090000000000000000000000000000000000060
:1000A0000000000000000000000000000000000050
:1000B0000000000000000000000000000000000040
:1000C0000000000000000000000000000000000030
:1000D0000000000000000000000000000000000020
:1000E0000000000000000000000000000000000010
:1000F0000000000000000000000000000000000000
:1001000000000000000000000000000000000000EF
:1001100000000000000000000000000000000000DF
:1001200000000000000000000000000000000000CF
:1001300000000000000000000000000000000000BF
:1001400000000000000000000000000000000000AF
:100150000000000000000000000000007370043088
:10016000170500001305C5FF8545F605637BB5003F
:1001700089816378B500170500001305C5002E9529
:1001800002859302002073A0027D970200009382F3
:1001900062E773907230971200009382E296739038
:1001A000C27E73E0C07E971200009382A28D73908E
:1001B0005230970100189381E16C178100181301E8
:1001C00061E4171500001305254097050018938575
:1001D00065E317060018130666EB63FAC500832271
:1001E000050023A0550011059105E3EAC5FE17059A
:1001F00000181305A5E9970500189385A5F2637704
:10020000B500232005001105E36DB5FE73F0023241
:10021000171500001305051197100000E780200C4A
:1002200097100000E780801397000000E780407877
:100230000145814597000000E780801E17130000EC
:100240006700E30A01A073E00232828073F0023299
:0402500082800000A8
:100280000A50726F6772616D2068617320657869CA
:10029000746564207769746820636F64653A000050
:1002A000307800006E6D690A0000000074726170A1
:1002B0000A0000009A99D93F3D0AB73FAE47114066
:1002C0005C8FC23FE17AF43F713D1A4033332340E3
:1002D000CDCC2C40AE4701403D0A374085EB414034
:1002E0007B144E40C3F508409A9959403D0A674037
:1002F000E17A744000080000B30C00009B0F00007E
:100300009B0F0000B30C0000000800004C0300002D
:1003100064000000640000004C03000000010202C1
:10032000030303030404040404040404050505058D
:100330000505050505050505050505050606060669
:10034000060606060606060606060606060606064D
:100350000606060606060606060606060707070739
:10036000070707070707070707070707070707071D
:10037000070707070707070707070707070707070D
:1003800007070707070707070707070707070707FD
:1003900007070707070707070707070708080808E9
:1003A00008080808080808080808080808080808CD
:1003B00008080808080808080808080808080808BD
:1003C00008080808080808080808080808080808AD
:1003D000080808080808080808080808080808089D
:1003E000080808080808080808080808080808088D
:1003F000080808080808080808080808080808087D
:10040000080808080808080808080808080808086C
:100410000808080808080808080808083571B7051A
:10042000000822CD130600041384452B8800938511
:10043000452B06CF26CB4AC94EC797100000E78050
:1004400080F8930504041306800228089710000022
:10045000E78060F797000000E780C07901449700CB
:100460000000E780E07D814497100000E780C084B1
:10047000014997100000E780E08BA1499700000038
:10048000E780E055850497000000E780C0792DCD16
:1004900097000000E780C07E97100000E780E084AE
:1004A00097100000E780208C634205041C010A05B8
:1004B0003E95832505FC2E852EC697100000E7800B
:1004C00040CC2A89120597100000E78080D1B24500
:1004D00097100000E780C09997100000E78060CA7D
:1004E000AA85054597100000E780808393D5844056
:1004F000094597100000E780A082A6850D4597105A
:100500000000E780E081814497000000E780A0724E
:100510003365250301ED931724001801BA9703A54D
:1005200087F9050497000000E780E052E3DC89F4D6
:10053000014489BF41111305D04106C69700000050
:10054000E780A01CB2401305D04141011703000011
:100550006700231D377700408327074011E593E7A5
:1005600017002320F7408280C166D58FDDBF09E9DF
:100570003777004083270740F59B2320F740828090
:10058000B776004083A7064001777D17F98F23A037
:10059000F640828085471DE5638CF50089C5894753
:1005A000638DF5008280B777004023A4C740828026
:1005B000B777004023A6C7408280B777004023A8C2
:1005C000C7408280638CF50089C58947638DF5003B
:1005D0008280B777004023AAC7408280B777004067
:1005E00023ACC7408280B777004023AEC7408280EB
:1005F00009E93777004083270740ED9B2320F74028
:100600008280B776004083A706403707FCFF7D173E
:10061000F98F23A0F6408280B777004003A70740F8
:1006200019E91377F7F323A0E74003A70740D98D13
:1006300023A0B7408280B70640FFFD16758F23A028
:10064000E74003A70740C205DDB793F7050193F81C
:10065000F50099C3B3E8C8008147054EBD4E130F9E
:100660008002930F800421433316FE00758E1DC255
:1006700013972700832205003398EE001348F8FFF4
:10068000337858003397E800336707016399E5052D
:1006900050C918C18507E39967FC054EBD4E130F7D
:1006A0008002930F800441433316FE00758E05C609
:1006B000139727000117832245003398EE00134853
:1006C000F8FF337858003397E80033670701639CDD
:1006D000E50150C958C18507E39867FC8280E39A19
:1006E000F5FB10C97DB7E397F5FF10C9E5B7B7175C
:1006F0000240135765003E9714438547B397A70000
:10070000D58F1CC38280B7170240135765003E97F0
:1007100014438547B397A700D58F1CC38280B717B2
:100720000240135765003E9714438547B397A700CF
:1007300093C7F7FFF58F1CC38280B7170240984319
:10074000B706FFE0B1061367170098C3D843758F4B
:10075000D8C39843B706F7FEFD16758F98C3984324
:10076000B706FCFFFD16758F98C3D843B70601DFA7
:10077000FD16758FD8C323A607029843B706F7EA7C
:10078000FD16758F98C33707FF0098C794434167DC
:10079000D98E94C39307F7FF37170240144313967B
:1007A000E60063440600FD17F5FBB71702409843C7
:1007B0009316E70063C3060001A0D843B706C4DF61
:1007C000FD16D8C3D843D8C3D84313670740D8C34E
:1007D000D843758FD8C3D843B7062920558FD8C3BF
:1007E000D857BD76758FD8D7D857C166938616F17E
:1007F000558FD8D79843B7060004558F98C3B717BD
:100800000240984393164700E3DD06FE9843B7067F
:100810000010558F98C3B7170240984393162700CE
:10082000E3DD06FE9843B7060001558F98C3B7175E
:100830000240984393166700E3DD06FED843719BA0
:10084000D8C3D84313672700D8C3371702405C4387
:10085000A18BF5DF82807971B705000822D47D462F
:100860002A84938505280A8506D697100000E7801C
:1008700080B579468A85094597100000E78000B663
:10088000A285094597000000E780E001B705000850
:1008900005469385052B094597100000E78000B4B5
:1008A00001A079714ECEAE89B7050008094693853F
:1008B000052A22D426D24AD052CC56CA06D62A8934
:1008C000714497100000E78060B13D4AA54AF15499
:1008D000B3178A00B3F73701B3D7870093F7F70F41
:1008E00063ECFA029387070393F7F70F0546930526
:1008F000F1004A857114A307F10097100000E7800A
:10090000E0ADE31794FCB250225492540259F249DC
:10091000624AD24A4561828093877703F1B7B7076D
:1009200000D223800700A38507001205B71700D265
:100930003E9563E3A700828023A00700C107D5BFCF
:10094000F327503093F707FC93E737007390573045
:100950008280B7050008411115469385452A054553
:1009600006C697100000E78060A7054597000000C5
:10097000E780A0EE41119347F5FF22C406C6139706
:1009800047012A8409E797000000E780C0FCB7050B
:10099000000815469385C52A054597100000E78095
:1009A000E0A3228597000000E78020EB411106C6F6
:1009B00097000000E780A0D813057005970000009D
:1009C000E78020F697000000E780C0F7B2404101C1
:1009D00017030000670063878280411113052060C0
:1009E00006C697000000E780C0D01305D0719700BD
:1009F0000000E78000D037150140C1460D46814513
:100A00001305058097000000E78060C49700000090
:100A1000E78080B2014597000000E780A0BD8145D6
:100A2000014597000000E78060BF01459700000086
:100A3000E78020B401451306F07F81459700000050
:100A4000E78080B5B240014541011703000067000F
:100A5000A3B013160501418281450145170300002B
:100A6000670083B3000000000000000000000000E9
:100A70000000000000000000000000000000000076
:100A80005D7106C012C216C41AC61EC82ACA2ECC70
:100A900032CE36D03AD23ED442D646D872DA76DC5E
:100AA0007ADEFEC0F322103496C0F322003096C2E4
:100AB000F322407C96C4732520348A859700000079
:100AC000E78080EB86427390123496427390023036
:100AD000A6427390427C82401242A2423243C243F9
:100AE0005245E245724682561257A2573258C258B2
:100AF000525EE25E725F864F6161730020300000DB
:100B000000000000731101345D7106C012C216C4EA
:100B10001AC61EC82ACA2ECC32CE36D03AD23ED4FD
:100B200042D646D872DA76DC7ADEFEC073D0E87E32
:100B30007350F97E73D0B97EF390D07E7370043019
:100B4000B6427390427CA6427390123496427390E0
:100B5000223482401242A2423243C2435245E2450D
:100B6000724682561257A2573258C258525EE25EFF
:100B7000725F864F61617311013473002030AA8265
:100B8000B68E214363C46E009102E11E8A0E3D437E
:100B90003313D3011343F3FFAE83B3E3C300B39323
:100BA000D30103AE0200337E6E00336E7E0023A0BD
:100BB000C2018280F18D2D8E4206D18D0CC98280BA
:100BC0004CC982804CC582800C458280B71202409D
:100BD00003A3C2013363A30023AE62008280B71275
:100BE000024003A382013363A30023AC620082802E
:100BF000711106C0414597000000E78060FDB71203
:100C000000401303B00623A462021303703E23A620
:100C1000620223A80200054323A062008240110162
:100C20008280B712004003A5020119C123A8020067
:100C30008280B712004003A542028280711106C073
:100C4000214597000000E780C0F9371501401305E2
:100C500005C081450D4681460D4797000000E7809D
:100C600040F28506E39BE6FE82401101828097F206
:100C7000FF1793822239038502008280711106C01A
:100C800037150140130505C097F2FF17938282378D
:100C900083850200FD1563D305009D452380B200C6
:100CA0001D4697000000E78020F103850200824086
:100CB00011018280711106C0214597000000E78074
:100CC00040F237150140130505C081450D46A14688
:100CD000414797000000E780C0EA8506E39BE6FEF7
:100CE000824011018280711106C097F2FF17938232
:100CF000A23183A20200AA9237150140130505C054
:100D000083C50200A20537060100130606F097000E
:100D10000000E78060EA82401101828097F2FF17AD
:100D20009382822E83A20200AA922380B200828044
:100D3000711106C0114597000000E78080EA371561
:100D400001401305058081451146954625479700CA
:100D50000000E78000E38506E39BE6FE8240110188
:100D60008280711106C07D5E97FEFF17938E9E2ACA
:100D700003A30E009303F3FF23A07E0063970304F5
:100D800023A06E0037150140130505809700000071
:100D9000E780C0E39581BD898DC985813335B00079
:100DA0003303A00085813335B0002A938581333524
:100DB000B0002A9397000000E780A0EB0A05336E8D
:100DC000A3001303002023A06E007285824011014E
:100DD000828097F2FF179382322423900200828050
:100DE00097F2FF179382522303D30200A543050312
:100DF000137EF30063D8C3031903135E4300137E0D
:100E0000FE0063D1C30313030306135E8300137E46
:100E1000FE0063D9C30113030360135EC30063D3F1
:100E2000C301014323906200828097F2FF179382EF
:100E3000B21E03D50200828097F2FF179382F21D43
:100E400003A302007D1323A0620063500302130377
:100E5000F00823A0620097F2FF179382E21A03A31F
:100E600002001343130023A0620082803707800032
:100E700041117D17B377A70026C24AC09354F501EC
:100E80001359750113D575016D8F1379F90F13750A
:100E9000F50F06C622C4FD818E070E07B306A940D2
:100EA0006392B412635AD00621E1630B0726FD1644
:100EB0008DE6BA974A85139757006359070C0505C5
:100EC0001307F00F6304E5263707007E93F617003B
:100ED0007D178583F98FD58F55A81306F00F631CF6
:100EE000C9001305F00F5DA01306F00FE30BC9FE58
:100EF00037060004518F6D466354D600054755BF31
:100F000013060002B355D700B306D6403317D700F7
:100F10003337E0004D8F71BFB9C633062541631DDD
:100F2000090089CB7D1619E2BA9771B79306F00FC5
:100F3000631BD500BA8799A89306F00FE30CD5FE82
:100F4000B7060004D58FED4663D4C6008547E9BFD8
:100F500093060002918EB3D5C700B397D700B3377D
:100F6000F000CD8FD1B79306190013F5E60F39E1E4
:100F700063190902E1D319CBBA9713975700635746
:100F80000700370700FC7D17F98F054513F7770039
:100F9000630F071813F7F7009146630AD7189107F4
:100FA00079A26381071815DF8144B7070002130592
:100FB000F00FB5AA1306F00F6388C616BA9785839B
:100FC0003685E9B76355D0061DE94A8561D3FD161C
:100FD00081EE998F13975700E35A07FA37040004FC
:100FE0007D147D8C2A89C5A81306F00F1305F00F18
:100FF000E30EC9F86D46635ED600054735A01306BB
:10100000F00F1305F00FE303C9F837060004518F02
:10101000D5B713060002B355D700B306D640331731
:10102000D7003337E0004D8F998F4A8565B7B9CA2D
:10103000330625416310090299CB7D1609E6B307F3
:10104000F740AE8441BF9306F00F631CD500BA870A
:10105000AE842DBF9306F00FE30BD5FEB706000458
:10106000D58FED4663D4C6008547D1BF93060002F5
:10107000918E33D8C700B397D700B337F000B3676A
:10108000F80075BF130519001375E50F05ED63141E
:10109000090289E74DFF8147814451A8E30807EE23
:1010A000B386E74013965600B307F740E34206FACB
:1010B000FDD2B687E1BDE39807EEE30707EEBA87F6
:1010C000AE8405B53384E7409316540063DF06020F
:1010D0003304F740AE84228597000000E780601C4F
:1010E0006D153314A400634625033305254105051A
:1010F00013070002B357A4003305A7403314A4001C
:1011000033348000C18F014551B571F481470145E9
:1011100061B7B70700FCFD173305A940E18FBDB5E6
:101120004A85ADB5BA8775BB1305F00F8147139794
:101130005700635B070005051307F00F630FE50217
:10114000370700FC7D17F98F1307F00F8D836316A7
:10115000E50081C7B707400081441375F50FB24021
:101160002244A6071317750113D59700FE04598D65
:10117000458D02499244410182808147F1B737068B
:101180008000135775019307F6FF1377F70F930548
:10119000E007E98F9356F50163F1E5049305D00963
:1011A00063F8E500370500801345F5FF369582802A
:1011B00033E5C7009307500963DAE7001307A7F682
:1011C0003315E50081CE3305A04082809307600986
:1011D0003387E7403355E500F5B70145828041117B
:1011E00006C622C426C2AA8745C91357F54133440F
:1011F000A700198C9354F501228597000000E78021
:10120000400A9307E009898F130760096346F702D4
:1012100021476355A70061153314A400260493F7F2
:10122000F70FDE0725801395F4015D8C418DB240E8
:10123000224492444101828013079009635DF700C4
:101240001547098F9306B5013357E4003314D400D2
:1012500033348000598C15476356A7001307B5FF38
:101260003314E400370700FC7D1793767400618F18
:1012700091C63D8891466303D40011079316570029
:1012800063D90600B70700FCFD177D8F9307F009AF
:10129000898F1354370059B78144014441B7C1675E
:1012A0006376F5029307F00FB3B7A7008E07130715
:1012B00000021D8FB357F50017F5FFFF1305450614
:1012C000AA9703C507003305A740828037070001AE
:1012D000C147E36EE5FCE147D9BFAA8581460146D7
:1012E00001451703000067008314411122C406C69C
:1012F000970700009387671C2A8491C78145970050
:101300000000E780801B970700009387A72B884386
:101310001C5591C38297228597F0FFFFE780E05329
:101320004111970700009387272A22C41704000061
:10133000130484291D8C26C206C60984BE8411E4C8
:10134000B24022449244410182807D1493172400CC
:10135000A6979C438297E5B74111970700009387B2
:10136000A72622C417040000130404261D8C26C2DD
:101370004AC006C6098481443E8963968402970761
:10138000000093876724170400001304E4231D8CD6
:10139000098481443E89639F8400B2402244924480
:1013A00002494101828093972400CA979C43850497
:1013B0008297E1B793972400CA979C43850482974C
:1013C000D9BF2A8309CA83830500230073007D16D1
:1013D000050385056DFA828097F7FF17938787CA03
:1013E000B2862E86AA858843170300006700830013
:1013F000411122C42A842E85B285368697F7FF17BD
:1014000023AE07D006C697000000E7808017FD577F
:101410006319F50097F7FF17938747D09C4391C353
:101420001CC0B24022444101828097F7FF17938786
:10143000E7C59C432A8E8DE717F7FF17130747C5AB
:1014400097F7FF1723A4E7C417F5FFF7130585BB2C
:10145000BA8719C51C4117F5FF17232FF5CABA879C
:10146000D8437D487D556347E804630E0E0203A808
:1014700087086301080493182700C29823A0C800B6
:101480000323081005463316E6003363C300232008
:10149000681023A0D80889466317DE008326481009
:1014A000558E2322C810930617000A07D4C3BA9793
:1014B0008CC701458280797152CC56CA5AC85EC623
:1014C00006D622D426D24AD04ECE62C42A8B2E8A89
:1014D00097FAFF17938A8ABB854B03A40A0011C8A9
:1014E0004440832984081389F4FF8A04A294635E2C
:1014F0000900B250225492540259F249624AD24A27
:10150000424BB24B224C45618280630E0A006395C8
:1015100009007D19F114E1BF93172900CE9783A725
:101520000708E39847FF5840DC407D1763182703FE
:1015300023222401F9DF032C44006388090083A6D9
:10154000091033972B01F98E89EE8297584083A7B3
:101550000A00E31487F9E30EF4FA41B723A204006A
:10156000D1BF93162900CE968C4283A64910758F61
:1015700001E75A858297D9BF2E858297C1BF411155
:1015800006C622C4814601478147930800047300C0
:1015900000002A84635A050033048040970000004D
:1015A000E780600100C17D542285B24022444101A0
:0E15B000828097F7FF179387E7AC884382800D
:0415C00020000020E7
:1015C4000700000008000020AA55AA55AA55AA55EC
:1015D400AA00020000FFFF8F0000000700000000C7
:1015E40000000000000000000000000000000000F7
:1015F40000000000000000000000000000000000E7
:1016040000000000000000000000000000000000D6
:1016140000000000000000000000000000000000C6
:1016240000000000000000000000000000000000B6
:1016340000000000000000000000000000000000A6
:0816440020000020000000005E
:040000050800015C92
:00000001FF
